:100000000C94C4030C940B040C940B040C94C304C4
:100010000C940B040C940B040C940B040C940B0424
:100020000C940B040C940B040C9483200C94572117
:100030000C9442190C940B040C940B040C940B04B8
:100040000C940B040C940B040C940B040C940B04F4
:100050000C940B040C948D190C940B040C940B044D
:100060000C940B040C940B040C940B040C940B04D4
:100070000C940B040C940B040C940B040C940B04C4
:100080000C940B040C940B040C940B040C940B04B4
:100090000C940B040C940B040C940B040C940B04A4
:1000A0000C940B040C940B040C940B042200210000
:1000B00020001F001E0029001700150008001A006C
:1000C00014002B000A000900070016000400496410
:1000D0000500190006001B001D004A002A5D2C00C7
:1000E0000658E0008B68000023002400250026004D
:1000F00027002D001C0018000C00120013002F0018
:100100000B000D000E000F00330034001100100032
:100110003600370038004D002B5D2A0028002C5D8A
:100120008A00000000000000000000000000000045
:1001300000000000000000000000000000000000BF
:1001400000000000000000000000000000000000AF
:10015000000000000000000000000000000000009F
:10016000000000000000000000000000000000008F
:10017000000000000000000000000000000000007F
:10018000000000000000000000000000000000006F
:10019000000000000000000000000000000000005F
:1001A000000000000000000000000000000000004F
:1001B000000000000000000000000000000000003F
:1001C000000000000000000000000000000000002F
:1001D000000000000000000000000000000000001F
:1001E000000000000000000000000000000000000F
:1001F00000000000000000000000000000000000FF
:1002000000000000000000000000000000000000EE
:1002100000000000000000000000000000000000DE
:1002200000000000000000000000000000000000CE
:1002300000000000000000000000000000000000BE
:1002400000000000000000000000000000000000AE
:10025000000000000000000000000000000000009E
:10026000000000000000000000000000000000008E
:10027000000000000000000000000000000000007E
:10028000000000000000000000000000000000006E
:10029000000000000000000000000000000000005E
:1002A000000000000000000000000000000000004E
:1002B000000000000000000000000000000000003E
:1002C000000000000000000000000000000000002E
:1002D000000000000000000000000000000000001E
:1002E000000000000000000000000000000000000E
:1002F00000000000000000000000000000000000FE
:1003000000000000010001000100010001000100E7
:1003100001000100010001000100010001000100D5
:1003200001000100010001000100010001000100C5
:1003300001000100010001000100010001000000B6
:1003400001000100010001000100010001000100A5
:100350000100010001000100010001000100010095
:100360000100010001000100010001000100010085
:100370000100010001000100010000002202210231
:1003800020021F021E0229021702150208021A0289
:1003900014022B020A020902070216020402490291
:1003A0000502190206021B021D024A02E2020100B6
:1003B0002C02E0008B00000023022402250226020A
:1003C00027022D021C0218020C02120213022F0235
:1003D0000B020D020E020F02330234021102100250
:1003E0003602370238024D02E3024C0028002C5D31
:1003F0008A0000002200210020001F001E002900AA
:100400000A00090007001A0014002B000C00180055
:1004100008001200040049640500190006001B00D2
:100420001D004A002A5D2C000858E0008B6800007F
:10043000230024002500260027002D001C001600A4
:100440001700150013002F000B000D000E000F0009
:1004500033003400110010003600370038004D0022
:100460002B5D4C0028002C5D8A0000002202210236
:1004700020021F021E0229020A02090207021A02B2
:1004800014022B020C021802080212020402490292
:100490000502190206021B021D024A02E2020100C5
:1004A0002C02E0008B000000230224022502260219
:1004B00027022D021C0216021702150213022F0238
:1004C0000B020D020E020F0233023402110210025F
:1004D0003602370238024D02E3024C0028002C5D40
:1004E0008A0000003F003E003D003C003B003A0017
:1004F000010001000100010001000100DE5C285D37
:100500000100010001000100005C295D0100010003
:10051000010001000100E1002C00E00001000000EA
:10052000400041004200430044004500010001003A
:1005300001000100010001005000510052004F0075
:1005400001000100010001000100010001000100A3
:100550002D5D2A0028004C00010000003F003E00F5
:100560003D003C003B003A00010001000100010099
:1005700001000100DE5C285D0100010001000100B6
:10058000005C295D01000100010001000100E100A3
:100590002C00E00001000000400041004200430048
:1005A000440045000100F400F600F500F9000100E8
:1005B000F200F100F000F300FA0001000100010078
:1005C00001000100010001002D5D2A0028004C00FF
:1005D000010000002200210020001F001E00290051
:1005E0002F0224021F0287022E022B0034002D024C
:1005F00034022D0033024900220221022002380277
:100600001E024A00E2002C00E100E0008B00000026
:10061000230024002500260027002D0023022502A8
:100620003602300230002F008902260237023202E1
:100630003200340001002F002E00360087004D00EC
:10064000E3002A00280001008A00000004033000B3
:1006500000000C036D0073007700350038000000C7
:100660000A037800630064003000000004030904FA
:1006700009023B00020100A032090400000103014D
:100680000100092111010001224000070581030832
:10069000000A090401000103000000092111010002
:1006A00001228A000705820320000A1201100100BE
:1006B0000000086632000001000102030105010983
:1006C00002A10185020901A10005091901290515E9
:1006D00000250195057501810295017503810105CC
:1006E00001093009311581257F95027508810609B8
:1006F000381581257F950175088106050C0A380299
:100700001581257F950175088106C0C00501090680
:10071000A1018505050719E029E7150025019508C0
:10072000750181020507190029EF1500250195F0D3
:1007300075018102050819012905950575019102C8
:10074000950175039101C005010906A1010507196D
:10075000E029E715002501950875018102950175CD
:100760000881010507190029FF150026FF009506DD
:100770007508810005081901290595057501910283
:10078000950175039101C00011241FBECFEFDAE07F
:10079000DEBFCDBF04B603FE27C080915302909107
:1007A0005402A0915502B09156028730904BA74059
:1007B000B04BD1F410925302109254021092550291
:1007C0001092560214BE84B7877F84BF0FB6F89488
:1007D000A89580916000886180936000109260000D
:1007E0000FBEE0E0F8E3099511E0A0E0B1E0E0E63B
:1007F000F7E402C005900D92A234B107D9F722E0C8
:10080000A2E4B1E001C01D92A335B207E1F70E9456
:10081000C31D0C9486230C9400008EE14A9B02C0F9
:100820008150E1F74A9BFECF08955A9880E28A955D
:10083000F1F75A9A0895FC013BE03A95F1F720E070
:1008400090E080E031E040E14A95F1F7880F4A9B63
:1008500002C08160232742E04A95F1F7000040E1A1
:100860004A95F1F79F5F6913EECF90E19A95F1F702
:1008700099B132E03A95F1F7000040E14A95F1F77D
:1008800092FB992790F992272081920F90830895E7
:10089000EF92FF920F931F93CF93DF930F92CDB7F9
:1008A000DEB719828C017C01E60EF11C0E151F05C6
:1008B00061F481E09981911180E00F90DF91CF91F7
:1008C0001F910F91FF90EF9008950E940D0468E032
:1008D000CE0101960E941B04F80181938F01E6CF9F
:1008E000909344018093430160934201529A5A9A33
:1008F000089590934401809343016093420152987C
:100900005A9AEA9AE9E6F0E080818F7C8083089524
:100910006150770B91E001C0990F6A95EAF720E0EA
:1009200031E0911108C0222391F05A9A80E28A9511
:10093000F1F75A980895492F482339F05A9A2327F6
:1009400040E24A95F1F79695ECCF5A98F9CF5A982C
:10095000EDCFFF920F931F93CF93DF93EC018C01A8
:10096000060F111DC017D10731F4DF91CF911F91F0
:100970000F91FF900895F9900E94150468E08F2D63
:100980000E948804EFCF1F920F920FB60F9211248E
:100990000F931F932F933F934F935F936F937F9387
:1009A0008F939F93AF93BF93EF93FF93CF93DF9377
:1009B0000F92CDB7DEB719820E940D0467E0CE0119
:1009C00001960E941B04082F069506950695982F00
:1009D00092959570202F2570920F292F2370969550
:1009E00096958770920F891344C08981811141C007
:1009F000809142018017E8F120E12A95F1F75A9A97
:100A0000529A82E08A95F1F700C0A8E00A9FC001DF
:100A100011240091430110914401080F191F5A98A5
:100A2000F8016581662321F0868197810E94A904DF
:100A30000E941504F0E1FA95F1F75A9852985A9AE3
:100A400020E12A95F1F7D80112966C91129766234E
:100A500031F113968D919C910E944804D801ED913B
:100A6000FC91882311F088E001C082E080830E941D
:100A70000D040F90DF91CF91FF91EF91BF91AF9156
:100A80009F918F917F916F915F914F913F912F91A6
:100A90001F910F910F900FBE0F901F901895ED9121
:100AA000FC91E1CF0F931F93CF93DF9320914201ED
:100AB000281719060CF471C08C0193E0000F111F68
:100AC0009A95E1F7C0914301D0914401C00FD11F25
:100AD000F894529A5A9825E02A95F1F70000982F39
:100AE000969595708570980F892F83709695969539
:100AF000980F092B0E94150400C067E0802F0E9408
:100B0000880480E18A95F1F752985A9A4A9B17C057
:100B100087E090E04A9915C06D81662321F18E81AE
:100B20009F810E94480481111EC0529A5A9AE881FE
:100B3000F98182E08083789482E090E00DC000C06B
:100B4000E5CF019771F4529A5A9AE881F98181E0D0
:100B50008083789481E090E0DF91CF911F910F9195
:100B6000089500C0D7CF0E940D0420E22A95F1F726
:100B70005A98529A80E18A95F1F76A81662321F0AA
:100B80008B819C810E94A9040E941504E881F9814F
:100B90001082789490E080E0DFCF84E090E0DCCFBA
:100BA000CF93DF93A7E3B1E04CE351E0C1E0D0E0A5
:100BB0008D91E82FE295EF70F0E061A18F709E01BA
:100BC00001C0220F8A95EAF7922F9095962391A360
:100BD00082A1822B82A34A175B0751F7DF91CF9145
:100BE000089508950C94F1050E9479070E94D0059C
:100BF000A1E3B1E061E070E08D91E82FE295EF7044
:100C0000F0E041A18F709B0101C0220F8A95EAF7A5
:100C1000922F9095942391A382A1822B82A381E0AD
:100C2000A733B80749F7209A559A289A5D9AEFE4B6
:100C3000F1E0A5E4B1E011921D9281E0E935F807F9
:100C4000D1F70C94B1089F92AF92BF92CF92DF92EE
:100C5000EF92FF920F931F93CF93DF938091010147
:100C6000C5E0D0E0882311F0D0E0C0E087E3C82ED3
:100C700081E0D82EAE014B5B5E4F7A018A01AA2437
:100C8000A394B12C25E0922EF60181916F01E82FFB
:100C9000E295EF70F0E021A18F70A50102C0440F32
:100CA000551F8A95E2F7CA01922F982B91A392A122
:100CB0008095892382A350EA5A95F1F7E1E3F1E0A8
:100CC00020E050E040E03191A32FA295AF70B0E05A
:100CD00090968C9190E03F7002C0959587953A95DB
:100CE000E2F780FD39C0C501042E01C0880F0A94C7
:100CF000EAF7282B4F5F5F4F4630510521F7F80187
:100D00008081821719F02083909200010E94D00503
:100D10000F5F1F4FFCE3CF16F1E0DF0609F0B4CF01
:100D200080910001882359F081508093000188232D
:100D3000A9F08FE99FE00197F1F700C0000081E082
:100D4000DF91CF911F910F91FF90EF90DF90CF90A7
:100D5000BF90AF909F90089580E0CBCFC15BDE4FF6
:100D6000F70191917F0199938F5F8530C9F7E7CFA4
:100D7000CF93DF9320910101D0E0C0E0222311F056
:100D8000C5E0D0E00E949407009731F0029709F483
:100D9000289881E090E00BC0289ADE01A15BBE4F4D
:100DA00025E0E5E6F1E001900D922A95E1F7DF916B
:100DB000CF9108950E94230680910101E5E0F0E0C3
:100DC000882311F0F0E0E0E0E15BFE4F90E080E08E
:100DD00020E0DC01AB59BE4F4C913191431321E02F
:100DE0003C93019685309105A1F780915D01820FBA
:100DF00080935D010895CF93DF930E945D07882360
:100E000009F440C00E94230680910101C5E0D0E0B2
:100E1000882311F0D0E0C0E0C15BDE4F45E050E038
:100E2000BE0180E691E00E94372325E0FE01A0E6A6
:100E3000B1E001900D922A95E1F70E94B806892B46
:100E4000E9F05D98809159018F5F80935901863058
:100E500078F080910101F0E0E0E0882311F0E5E016
:100E6000F0E0E15BFE4F1082118212821382148245
:100E70000E94B90881E0DF91CF9108955D9A1092A8
:100E80005901F6CF0E94DA0680910101B0E0A0E09E
:100E9000882311F0A5E0B0E0A15BBE4F85E0E0E65D
:100EA000F1E001900D928A95E1F7E2CFE82FF0E0B2
:100EB000E15BFE4F80810895089580915A01811170
:100EC00011C08091D80080618093D8008AE18A9512
:100ED000F1F700C09091D900892F817090FF82E0D6
:100EE00080935A0181E090915A01913009F080E09D
:100EF00008950E945D07809301010E945D07882389
:100F000021F00E948807789408950E948E07FBCFF5
:100F100063E070E082E091E00C94700463E070E0C4
:100F200082E091E00C9479040F931F93CF93DF93A9
:100F30008C0190911B0180911A01D0E0C0E09817BC
:100F400059F082E090E00E945205EC01892B21F4D7
:100F500080911A0180931B0180915B0190915C014B
:100F6000082B192B90E080E0012B11F081E090E03C
:100F70000E945205892B71F480915D0180931A01C2
:100F800010925C0110925B01CE01DF91CF911F9115
:100F90000F91089581E090E090935C0180935B0154
:100FA000F3CF0E94A80D80936A010C9462080C9400
:100FB000A10DCF93DF93EC010E949C17BE0190E03E
:100FC00080E0DF91CF910C94D014CF93DF93D62F94
:100FD000C42F0E943215882351F08D2F0E943215A4
:100FE000882329F08C2FDF91CF910C9452158C2FF0
:100FF000DF91CF910C947315CF93FB018A322DE5CD
:10100000920769F158F488322DE5920791F0893200
:101010009D45C1F0C1E08C2FCF9108958C322DE514
:101020009207B1F0D0F18D329D45A1F7C28185E0E4
:1010300011C0C28181E090E0CC2369F30E94D907FE
:10104000C0E0E9CFC281CC2331F380E890E0F6CF55
:10105000C2818BE0CC2399F10E945215F1CFC2815D
:10106000CC2381F080916B01811103C081E08093DA
:101070006B0189E00E94521545E06AE089E00E9418
:10108000E507DECF10926B0189E00E94731545E001
:101090006AE089E00E94E507BECFC281CC2349F017
:1010A00080916B01811103C081E080936B018AE024
:1010B000E1CF8AE00E94731510926B01E8CF0E9485
:1010C0007315A9CF089581E008950C94FC07089545
:1010D0000C9467081F93CF93DF9300D000D00F923A
:1010E000CDB7DEB749835A836B8330918101898103
:1010F0009A8131111DC06623B9F02223A9F00E9404
:101100004516182F682F89819A810E94EE156981F2
:101110007A81812F0F900F900F900F900F90DF9199
:10112000CF911F910C941A090E941C16182FEFCF13
:101130000E94451669817A81EDCFFC01262F4081FE
:1011400051816281738184810C946A08CF93DF930B
:10115000EC0160E00E949D08BE01DF91CF910C94EC
:1011600068080E948917811102C00E942B180C94F4
:10117000D1070C94F20508950C94BB0881E0089502
:101180000C94BE08CF93C82F0E94BC088C2FCF911F
:101190000C94C00808950E9447110E94CA082FEFBE
:1011A00084E39CE0215080409040E1F700C00000C3
:1011B0000C94B1190F931F93CF93DF93EC0161E06F
:1011C0000E949D088C01BE010E946508882329F1B8
:1011D000BE01C8010E94920B8823F9F0BE01C8012C
:1011E0000E94E40B8823C9F0BE01C8010E94070DCC
:1011F000882399F08A81882339F001158CE5180736
:1012000051F00E3D1C4579F0CE01DF91CF911F9139
:101210000F910C9463080E94CB0880E0DF91CF917E
:101220001F910F9108950E942B18F7CF90E080E056
:1012300008950895972F70E026E0929F600D711D2C
:101240001124FB019CE3899FE00DF11D1124EE0F99
:10125000FF1FE455FF4F859194910895FC01EE0F17
:10126000FF1FE45BF94F859194910895CF93DF932D
:101270000E941A090E942D0AEC01811521E59207AE
:10128000E8F5811530E5930708F09BC08F3F910585
:1012900009F0F0F4803F910508F085C0803E91058B
:1012A00080F4803C910508F080C08130910561F0A8
:1012B000009751F00497813A910530F0D0E0C0E0FA
:1012C00003C0883E9105D0F7CE01DF91CF910895FC
:1012D0008115904338F4C11580E2D807A8F3CE01F8
:1012E0009F7065C0C11590E4D90708F067C0CE01B2
:1012F0009927D3FF60C0EC01D86CE6CF811525E5B6
:10130000920700F5811534E5930708F08EC081152A
:1013100043E5940708F076C0C11582E5D80708F4C4
:101320006CC0CE018370992721E030E002C0220F0B
:10133000331F8A95E2F7C695C69580E2C89FE00103
:10134000112457C0C11599E5D907A8F4C11528E59E
:10135000D20708F06FC0C11536E5D30708F0AECF4D
:101360008C2F0E94C40AC82FD0E0DC2FCC27CC27BA
:10137000DF71D062A9CFC1154AE5D40708F45FC078
:10138000CE0190568115904208F098CF8D2F8F7125
:101390000E94C40A90E0982F882788279F719C019B
:1013A0002C2BE901E6CFD0658FCF805C91090E949C
:1013B0002E09EC0189CFEC01D06C86CFDF70D06AAA
:1013C00083CFE4E096958795EA95E1F783702C2F1B
:1013D00026952695237040E2249F90011124382BF6
:1013E0008C2F8370C1E0D0E002C0CC0FDD1F8A9546
:1013F000E2F7C22BD32BDC6867CFDC2FCC27C16F81
:10140000D06A62CF8370992721E030E002C0220FBA
:10141000331F8A95E2F7C695C69590E2C99FE00111
:101420001124C22BD32BDA684FCFD82FCC27C46F0F
:10143000D06A4ACFDC2FCC27C06FD06A45CF8C2F23
:101440008F700E94C40A34E0D695C7953A95E1F7AB
:10145000CF709C2FEC01D06937CF82389105B1F164
:10146000B0F48133910509F475C048F489329105CF
:1014700009F469C08A32910509F473C0089585336F
:10148000910509F459C08933910501F10895833E0E
:101490009105A9F138F4803E9105F9F0823E91055D
:1014A00049F10895863E9105A9F1873E9105C9F15C
:1014B000843E910519F52091450221FF1FC08091BE
:1014C000440284FD14C087EE90E008952091440208
:1014D0002370A1F080EE90E008952091440220FD59
:1014E00047C03091450230FF09C024FF44C090E05E
:1014F00080E004C02091440222FDF7CF089520919E
:10150000440222FD3BC03091450230FDE3CF24FF71
:10151000F5CFEDCF2091440223FFF0CF24FDE7CF9C
:10152000D2CF2091440223FD2CC03091450231FFDF
:10153000EECF84EE90E008952091440225FFDECFA7
:1015400089E290E008952091440225FFD7CF85E3FA
:1015500090E008952091440226FFD0CF8AE290E0E7
:1015600008952091440226FFC9CF81E390E00895B9
:1015700089E390E0089583EE90E0089582EE90E094
:10158000089586EE90E008959091440292FF06C07F
:10159000282F28712830F9F4877F846093FF06C0D4
:1015A000282F28712831F1F4877E8461209145022B
:1015B00020FF06C0382F38713830D9F4877F81601A
:1015C00021FF06C0282F28712831D1F4877E816140
:1015D00094FD877E0895282F24712430F9F68B7F9F
:1015E0008860DCCF282F2471243101F78B7E88613D
:1015F000DDCF382F3171313019F78E7F8860E0CF21
:10160000282F2171213121F78E7E8861E1CFAF92A1
:10161000BF92CF92DF92EF92FF920F931F93CF93DF
:10162000DF937C015B01C42FD22FFC0182818823D0
:10163000F9F040936E010E94721990936D018093AE
:101640006C0180E28C0F883008F061C0C77081E0C7
:1016500001C0880FCA95EAF7DF91CF911F910F91D2
:10166000FF90EF90DF90CF90BF90AF900C94EF0E73
:1016700010916E01141340C080916C0190916D0126
:101680000E947E196C01B701C5010E94AB13C816F8
:10169000D90690F5C0E2CD0F1D17B9F080E2810F99
:1016A000883040F4177081E001C0880F1A95EAF77E
:1016B0000E94F60EC83048F481E09D2F977001C05B
:1016C000880F9A95EAF70E94EF0E802F0E94DC0E99
:1016D000C830E8F4D77081E001C0880FDA95EAF7E6
:1016E000DF91CF911F910F91FF90EF90DF90CF90FE
:1016F000BF90AF900C94F60E80E28C0F883038F4D7
:10170000C77081E001C0880FCA95EAF7E9CFDF9181
:10171000CF911F910F91FF90EF90DF90CF90BF90EE
:10172000AF9008950F939C01CB01233F4CE5340704
:1017300059F1A8F4283DFCE53F0701F1293D4CE5AE
:101740003407D1F1273D3C4591F406E221EE41EE0C
:1017500067ED7CE50E94070B80E00F910895253F1F
:10176000FCE53F07E9F0B0F0263F3C45F9F0FC010D
:101770008281882339F110926E01EFCF07E225EEC6
:1017800045EE68ED7CE5E6CF06E221EE40EE63EF44
:101790007CE5E0CF07E225EE44EE64EF7CE5DACFAE
:1017A00006E221EE42EE65EF7CE5D4CF07E225EEBE
:1017B00046EE66EF7CE5CECF08E221E045EE69ED2E
:1017C0007CE5C8CF81E0C9CFCF93DF93EC01FB016B
:1017D0008281882309F419C1C230FCE5DF07C0F11A
:1017E000C6319CE5D90730F09E012A5F3C4529307F
:1017F000310570F50E94A117909345028093440231
:10180000C031ECE5DE0709F4CFC008F05BC0C8309A
:101810008CE5D80709F4B6C088F5C430ECE5DE07DE
:1018200009F4A8C0C0F4C2308CE5D80709F49CC004
:10183000809144028260C330DC4509F498C08091F5
:101840004402909145020E94AF170E94471180E028
:10185000DF91CF910895809144028061C630ECE51C
:10186000DE0709F484C0809144028860C730DC45FB
:1018700008F47DC080914402806279C0CC308CE550
:10188000D80709F489C070F4809144028C60CA3092
:10189000ECE5DE0709F46BC008F478C080914402DF
:1018A0008E7F65C0CE308CE5D80709F479C0809171
:1018B00044028B7FCF30DC4508F459C0809144024C
:1018C0008F7E55C0CB3FECE5DE0709F457C030F5FD
:1018D000C3318CE5D80709F46FC078F4C131ECE569
:1018E000DE0709F465C0C231DC4509F0A8CF0E94CB
:1018F0004711809144028F773AC0C5318CE5D807F3
:1019000009F462C008F476C0809145028160CA3F44
:10191000DC4509F094CF8093450291CFCF3FFCE5A1
:10192000DF0709F44DC088F4809145028D7FCD3FDB
:101930009CE5D90781F3809145028E7FCE3FDC453F
:1019400050F3809145028360E6CFC130FDE5DF07AB
:1019500009F459C008F444C080E0C230DD4509F004
:101960006ECF0E942D186BCF8091440281608093CE
:10197000440265CF809144028460F9CF8091450292
:101980008260C9CF809144028064F1CF0E944711E8
:10199000809144028068EBCF809144028D7FE7CF35
:1019A00080914402877FE3CF809144028F7DDFCF17
:1019B000809144028F7BDBCF80914402837FD7CF1D
:1019C000809145028C7FA7CF8091440282FB9927AA
:1019D00090F921E0922790FB82F990FB83F9C7CF21
:1019E00080914502982F909591708E7F892B90FB66
:1019F00081F991CF0E94471190914402892F97FB62
:101A000087F98058B4CF81E0ACCF81E021CFCF936C
:101A1000DF93EB0186319C4511F50E94DA169A811D
:101A2000992399F08A7A91E009F490E090936F01FC
:101A3000811109C089E20E94B5160E94261780E034
:101A4000DF91CF91089585E3F6CF80916F018111E9
:101A500004C089E20E94BC16F0CF85E3FBCF81E091
:101A6000EFCF90937501809374010895E091740114
:101A7000F0917501309721F00190F081E02D0994EB
:101A800080E00895E0917401F0917501309799F02C
:101A900020913001222359F02091440227FF07C0F2
:101AA000DC012C9111962C93119725E02C93028048
:101AB000F381E02D09940895E0917401F09175018E
:101AC000309739F022E0DC012C930480F581E02D81
:101AD00009940895209172013091730128173907F4
:101AE00071F09093730180937201E0917401F09111
:101AF0007501309721F00680F781E02D0994089553
:101B000020917001309171012817390771F090937D
:101B1000710180937001E0917401F091750130972B
:101B200021F00084F185E02D0994089585B780683F
:101B300085BF85B7806885BF0895089508950C9482
:101B40009D0D08950E94960D0E949E0D0C949F0D70
:101B500081E008950C94A80D0E9469190E94F40573
:101B60000E94C2190C94D707BF92CF92DF92EF92D6
:101B7000FF920F931F93CF93DF93CDB7DEB72A97D2
:101B80000FB6F894DEBF0FBECDBF0E94FB060E94C9
:101B9000AA0D882309F45EC087E7C82E81E0D82EFD
:101BA00010E000E0B02E802F0E945607E82EF601CC
:101BB000F1906F01F81609F447C080910F0281FD82
:101BC0000E945C079F2D9E2580E0FF24F394292F1F
:101BD0002F21B1F18E83BF82EF2081E009F480E0F4
:101BE00088870E9472198160782F9A8789874E8131
:101BF0005F8168858A850E944B0EF801E958FE4F87
:101C00008081F826F0820E946D1B0E94360D909113
:101C10007601891781F10E94360D809376012A960C
:101C20000FB6F894DEBF0FBECDBFDF91CF911F91ED
:101C30000F91FF90EF90DF90CF90BF900C94C2086F
:101C40008F5FFF0C863019F60F5F1F4F0A301105AA
:101C500009F0A8CF8FEF89838A831B820E947219B3
:101C60008160782F9D838C8349815A816B818D811E
:101C70000E944B0EC8CF2A960FB6F894DEBF0FBE57
:101C8000CDBFDF91CF911F910F91FF90EF90DF902B
:101C9000CF90BF900895CF93DF93CDB7DEB72B974A
:101CA0000FB6F894DEBF0FBECDBF4F83588769874C
:101CB0007A878B871E821D8285E0FE013796DE01C2
:101CC000119601900D928A95E1F749815A816B81B5
:101CD0007C818D819E812B960FB6F894DEBF0FBE5E
:101CE000CDBFDF91CF910C94AE13FC018081918127
:101CF0000C948716CF93C82F882369F18CEF8C0F33
:101D0000813AA0F46C2F80911C0190911D010E94DA
:101D10004618882329F08C2F0E94BC160E94261793
:101D20008C2F0E94B516CF910C94261780E28C0F51
:101D3000883048F4C77081E001C0880FCA95EAF77F
:101D40000E94DD16F0CFC03F30F08C2F0E94671A42
:101D5000CF910C94521BCF910895882361F19CEF91
:101D6000980F913A20F40E94BC160C94261790E22A
:101D7000980F983050F4877091E001C0990F8A95C0
:101D8000EAF7892F0E94E316F0CF9BE5980F933076
:101D900020F490E080E00C946A0D98E5980F97315C
:101DA00020F490E080E00C94800D803F20F00E94B1
:101DB000CF1A0C94521B0895CF93C82F0E947A0E0D
:101DC000C93349F42FEF87EE93E0215080409040D3
:101DD000E1F700C000008C2FCF910C94AD0E88234A
:101DE00021F00E94DD160C9426170895882321F017
:101DF0000E94E3160C9426170895BF92CF92DF92AB
:101E0000EF92FF920F931F93CF93DF936C01D62F26
:101E1000C72FFC01058102950F70128111110E94DC
:101E2000FA160E94D316E82E882391F01123D1F0E0
:101E30008C2F807F803421F080E28D0F883090F0ED
:101E400082E00E9471170E94D31691E0E82EE926E5
:101E5000BC2EB2949FE0B922EB2DF0E0E857FC4D88
:101E60000C941D23E12CF4CF0C2F0F70C07F11F0C8
:101E70000295007F1123A9F0002359F080E28D0F15
:101E8000883010F0D11109C0802F0E94DD160E9409
:101E900026178D2F0E947A0E14C0802F0E94ED16F7
:101EA000F6CF8D2F0E94AD0E002359F080E28D0FEA
:101EB000883010F0D1112CC0802F0E94E3160E94B0
:101EC00026172B2D2850330B2430310520F40E9487
:101ED000360D0E94C208EE2009F482C10E94CF167E
:101EE00080FD7EC1F60112820E94C9160E94521521
:101EF000C6010E9411110E94C916DF91CF911F9156
:101F00000F91FF90EF90DF90CF90BF900C947315DE
:101F1000802F0E94F316D3CFFC2FFF70FF2EC07FBF
:101F2000C03219F0F29480EFF822DD2369F0D1304D
:101F300049F1112391F1002351F1F601858180FFD0
:101F4000A8CF8F70858323C0112381F0011106C0B3
:101F50000E940D178F290E94EF0EB3CF0130C1F7F9
:101F60000E940D178F290E941317ABCF011106C0D5
:101F70000E941C178F2D0E94F60EA3CF013009F48A
:101F8000A0CFF6CF112329F0063008F09ACF8F2D7D
:101F9000E2CF053008F095CFEDCF002359F3D933C8
:101FA00049F4FFEF27EE33E0F15020403040E1F7F5
:101FB00000C000008D2F0E94AD0E83CF8D2F112306
:101FC00029F00E94671A0E94521B7BCF0E94CF1AF1
:101FD000FACF8C2F837009F041C0111172CF4D2FB1
:101FE000429546954770440F440F0D2F0F7010E037
:101FF00030E020E0042E04C0000F111F221F331F09
:102000000A94D2F760E070E0CB01D4FF0FC06FE01C
:1020100070E080E090E004C0660F771F881F991F72
:102020004A95D2F76095709580959095C695C6951E
:10203000C370602B712B822B932BC23049F058F464
:10204000C13019F00E94E4143CCF0E94D21439CF61
:102050000E94F61436CF0E94D01433CF86951123F8
:1020600011F08C2F8170882309F42BCF4D2F4295CE
:1020700046954770440F440F0D2F0F7010E030E06D
:1020800020E0042E04C0000F111F221F331F0A94EA
:10209000D2F760E070E0CB01D4FF0FC06FE070E0DA
:1020A00080E090E004C0660F771F881F991F4A9553
:1020B000D2F76095709580959095C695C695C3703A
:1020C000602B712B822B932BC23049F058F4C13016
:1020D00019F00E94C915F5CE0E94B715F2CE0E94E4
:1020E000DB15EFCE0E940C15ECCECF70112329F03A
:1020F0008C2F0E9452158D2F2ECF8D2F0E94F60E01
:102100008C2F0E947315DDCED23F89F160F4D03F51
:10211000C9F0D13F29F1112309F442C00111B9CE10
:102120008C2F8F7121C0D33F39F1D43FA1F71123F8
:1021300069F1CF718C2F0E94521563E08C2F0E94A1
:102140005C17BFCE112341F0053008F0BACE8C2FBA
:102150008F710E949615B5CE063008F0B2CEF7CF3B
:102160008C2F8F71112369F20E945215AACE8C2FE9
:102170008F711123C9F3C5CF112329F08C2F8F71D3
:102180000E943D159ECE0E9418159BCE81E00E94B4
:102190007117023008F495CE82E00E94711791CE3B
:1021A000002359F0D93309F005CF8FEF97EEE3E024
:1021B00081509040E040E1F7FBCE8C2F8F71A1CF92
:1021C0004C2F4F706D2FC6010E9416090E944814B3
:1021D00078CE4C2F4F706D2FC6010E94190971CE19
:1021E000DF91CF911F910F91FF90EF90DF90CF90F3
:1021F000BF9008950F931F93CF93DF93EC016881F5
:1022000079818A810E9491168C010E94ED150E94AD
:10221000CF14B801CE01DF91CF911F910F910C9493
:10222000FD0ECF93DF93EC018B819C81892B29F0EC
:102230008881998189238F3F59F4DF91CF91089547
:10224000CE010E94FA10CE01DF91CF910C94A60826
:10225000CE010E94DA088111F3CF0E94D3168823A1
:1022600061F38A81882349F382E0DF91CF910C9456
:1022700071170E94FA160E940A170E9426170E94E0
:10228000791C0C94521B0E94C3160C9439110E94A5
:10229000EA160C944311E92FE295EF70E250EE300C
:1022A00070F4F0E0E856FC4D0C941D23803F19F0CB
:1022B00020F4883E20F481E00895843FE1F380E03B
:1022C0000895883EC0F3813FD1F7F5CF93FB88276F
:1022D00080F908950E9487160C944B11CF93DF93D9
:1022E00000D000D00F92CDB7DEB70F900F900F90B7
:1022F0000F900F90DF91CF910895CF93DF9300D08F
:1023000000D000D0CDB7DEB726960FB6F894DEBF6A
:102310000FBECDBFDF91CF9108951F93CF93DF9371
:10232000C091820116E0809183018C1304C0DF917B
:10233000CF911F910895D0E01C9FF0011D9FF00DDB
:102340001124EC57FE4F4081518162817381848159
:1023500095810E947D112196C770E5CF4091B4010F
:102360005091B5016091B6017091B7018091B801AB
:102370009091B9010C947D111F93CF93DF938091BD
:10238000B901807FA9F48091B601882389F08091FA
:102390008201C09183016091B4017091B501A09157
:1023A000B701B091B801D62FD72316E0C81304C0E7
:1023B000DF91CF911F91089590E0109711F0DF3FCA
:1023C00019F401968770F2CF189F9001199F300D74
:1023D0001124F901EC57FE4F41814713F2CF4081A0
:1023E0004613EFCF42814111ECCF438154814A1B08
:1023F0005B0B4436510528F78091B9018F708061DD
:102400008093B901F901E757FE4F80818F70806199
:10241000808384EB91E00E941111DF91CF911F9195
:102420000C948D11AF92BF92CF92DF92EF92FF92F8
:102430000F931F93CF93DF93CDB7DEB761970FB69E
:10244000F894DEBF0FBECDBF8C0185E0F801DE0140
:102450001D9601900D928A95E1F7F8014081518116
:10246000E28084EBC82E81E0D82E6091B701709194
:10247000B8016115710509F44FC19091B401209123
:10248000B501892F82238F3F09F446C1A380B48010
:10249000F090B601F501E61BF70BFF2009F40AC125
:1024A0008091B901382F307FE436F10508F0C0C0C3
:1024B000311179C0FE2C251323C0941321C0E110E3
:1024C0001FC08F7080618093B9010E94AE11C60158
:1024D0000E9411118091B901F80185838F2D6196B9
:1024E0000FB6F894DEBF0FBECDBFDF91CF911F9125
:1024F0000F91FF90EF90DF90CF90BF90AF90089535
:10250000AB2829F0842F85238F3F09F021C180E07B
:10251000F82FF170DF2E80FF3CC080918201209166
:10252000830136E0821315C04D875E878D859E85B9
:102530000E948716292F22952F702230F0F0243028
:1025400018F59F70F1F0F8019581907FD1F4D12CAE
:102550001EC090E0389FF001399FF00D1124EC5718
:10256000FE4F6181651306C06081641303C0628100
:102570006E110FC001968770D5CF9F7011F0882320
:1025800031F3805E883018F3C8010E941111FD2CD0
:10259000A5CFEE2009F4A2CF8091B901816080938C
:1025A000B901F12C9BCF251314C0941312C0E11074
:1025B00010C0F8018583C8010E94111186E0F8015E
:1025C000A4EBB1E001900D928A95E1F70E94AE1163
:1025D00085CF4D875E878D859E850E946A118823F1
:1025E00019F1EE2009F18091B901803270F020914B
:1025F000B4013091B50138872F831986BB86AA862E
:102600008C87CE0107960E94111186E0F801A4EB99
:10261000B1E001900D928A95E1F70E94BC110E94F1
:10262000AE11FF24F3945ACFC8010E941111F9CFC3
:10263000311113C07A2DB98AA88A6E2D89890E941A
:102640006E1184EB91E00E94111186E0F601119267
:102650008A95E9F70E94AE11A4CF25130FC09413F9
:102660000DC0E1100BC0F8018583C8010E94111153
:1026700086E0F60111928A95E9F730CF4D875E87A3
:102680008D859E850E946A11882371F2EE2061F289
:102690008091B901803208F4B8CF2091B401309113
:1026A000B5013A8329831B82BD82AC828E83CE0121
:1026B0000196A9CFE436F10510F5FE2CEE2009F4C1
:1026C000B3CF25130BC0941309C086E0F801A4EB27
:1026D000B1E001900D928A95E1F700CF4D875E87BA
:1026E0008D859E850E946A1181118FCF8091B901DD
:1026F00081608093B901C8010E941111EFCE7A2D3B
:10270000B98AA88A6E2D89890E946E1186E0F60129
:1027100011928A95E9F75ACFEE2009F485CF4D87BB
:102720005E878D859E850E946A11F82E882309F4A4
:102730007BCF86E0F801A4EBB1E001900D928A9581
:10274000E1F784EB91E00E94750E0E94BC113ECF30
:1027500081E08E25DDCE84E690E008951F93CF932F
:10276000DF93CDB7DEB72C970FB6F894DEBF0FBE60
:10277000CDBF4F83588769877A878B879C87CE0127
:1027800007960E941212882369F08A859B85892BFF
:1027900039F04F815885842F85238F3F09F071C010
:1027A00016E05FC086E0FE013796DE0111960190CB
:1027B0000D928A95E1F78A859B85892B89F38F8114
:1027C000988589238F3F61F32091830130E0C9010F
:1027D000019687709927409182014817190671F474
:1027E0000E944711109283011092820186E0E4EB6F
:1027F000F1E0DF011D928A95E9F7D2CF96E0929F32
:10280000D001939FB00D1124AC57BE4FFE013196FD
:1028100001900D929A95E1F7809383010E948D11AA
:10282000BFCF819FC00111248C579E4F0E9412126E
:102830008823E9F0E09182011E9FF0011124EC57FA
:10284000FE4F4081518162817381848195810E9414
:102850007D118091820190E0019687709927809385
:10286000820180918201909183018913DACF2C96A5
:102870000FB6F894DEBF0FBECDBFDF91CF911F9191
:10288000089569857A858B859C850E947D1188CF06
:10289000EF92FF920F931F93CF93DF938C01892BBD
:1028A00081F0F12CEE24E394E8012196F801849163
:1028B000843770F4843008F05FC08130B1F082302A
:1028C000A1F1DF91CF911F910F91FF90EF900895AB
:1028D000853709F44CC008F43DC09CE7980F903749
:1028E00080F78F770E94AD0E49C00E5F1F4FFE012B
:1028F000849190E2980F983060F48770FE2D01C0AB
:10290000FF0F8A95EAF78F2F0E94FD160E94261767
:1029100002C00E947A0E8F2D815030F2EFE9FFE065
:102920003197F1F700C00000F7CF0E5F1F4FFE0197
:10293000849190E2980F983050F48770FE2D01C07A
:10294000FF0F8A95EAF78F2F0E940317DFCF0E94AF
:10295000AD0EE1CF0E5F1F4FFE01C491C150D8F202
:102960008FE99FE00197F1F700C00000F7CF0E5FFD
:102970001F4FFE01F490CFCF0E947A0E8E01CBCF75
:1029800008950C94C0140E94C1146093E6017093E2
:10299000E7018093E8019093E9010C9439110895BF
:1029A0000C94C3140F931F930091E6011091E7015B
:1029B0002091E8013091E901602B712B822B932B40
:1029C0001F910F910C94C3140F931F930091E60174
:1029D0001091E7012091E8013091E9016023712312
:1029E000822393231F910F910C94C3140F931F9371
:1029F0000091E6011091E7012091E8013091E90191
:102A000060277127822793271F910F910C94C3147D
:102A10000C94C0140C9408150E940A156093E201EE
:102A20007093E3018093E4019093E5010C943911D4
:102A300060E070E0CB010C940C1561157105810507
:102A4000910529F481E0442361F080E00895DC01E0
:102A5000CB0104C0B695A795979587954A95D2F76F
:102A600081700895482F6091E2017091E301809197
:102A7000E4019091E5010C941D150F931F9341E023
:102A800050E060E070E08A019B0104C0000F111F5C
:102A9000221F331F8A95D2F7C901B8011F910F91E8
:102AA0000C940C150F931F9341E050E060E070E030
:102AB00004C0440F551F661F771F8A95D2F7809177
:102AC000E2019091E301A091E401B091E5018A0156
:102AD0009B01082B192B2A2B3B2BC901B8011F91F5
:102AE0000F910C940C150F931F9341E050E060E0A0
:102AF00070E004C0440F551F661F771F8A95D2F7F8
:102B0000CB01BA0160957095809590950091E20196
:102B10001091E3012091E4013091E50160237123DC
:102B2000822393231F910F910C940C150F931F93E5
:102B300041E050E060E070E004C0440F551F661FA4
:102B4000771F8A95D2F78091E2019091E301A091DD
:102B5000E401B091E5018A019B01082719272A2782
:102B60003B27C901B8011F910F910C940C150F93CD
:102B70001F930091E2011091E3012091E401309153
:102B8000E501602B712B822B932B1F910F910C94DD
:102B90000C150F931F930091E2011091E301209116
:102BA000E4013091E50160237123822393231F9177
:102BB0000F910C940C150F931F930091E20110914B
:102BC000E3012091E4013091E5016027712782271C
:102BD00093271F910F910C940C150895E92FEE0F78
:102BE000E90FEE0F8E0F982F977041E001C0440F50
:102BF0009A95EAF786958695869595E0899FF001E6
:102C00001124E654FE4F30E020E070E05191DF01E6
:102C10001197CB01022E02C0969587950A94E2F790
:102C2000817081958527842385278C932F5F3F4F63
:102C30002530310559F70895E92FEE0FE90FEE0F12
:102C40008E0F982F977086958695869525E0829FA2
:102C5000F0011124E654FE4F50E040E080E0219165
:102C600030E0092E02C0369527950A94E2F72170CC
:102C70003327042E01C0220F0A94EAF7822B4F5FFC
:102C80005F4F4530510559F70895BF92CF92DF92BB
:102C9000EF92FF920F931F93CF93DF938C01C0901D
:102CA000E201D090E301E090E401F090E501809131
:102CB000E6019091E701A091E801B091E901C82AED
:102CC000D92AEA2AFB2ACFE1D0E0BC2ED701C601DF
:102CD0000C2E04C0B695A795979587950A94D2F7C0
:102CE00080FD0EC0219788F7B12C8B2DDF91CF91FD
:102CF0001F910F91FF90EF90DF90CF90BF900895BC
:102D0000B8018C2F0E943609019761F3EECFCF9363
:102D1000DF93EC010E944516BE01DF91CF910C9428
:102D200036091F93CF93DF93EB0190918101992393
:102D300031F0CB01DF91CF911F910C94871688233E
:102D400079F0CB010E944516182F682FCE010E9402
:102D5000EE15BE01812FDF91CF911F910C943609A2
:102D6000CB010E941C16182FF4CF682F80911C01F4
:102D700090911D010C94C618682F80911C019091B0
:102D80001D010C94D11880911C0190911D010C948F
:102D9000DC188091EA018595859585950895809147
:102DA000EA01877008959091EA01977081E009F433
:102DB00080E0089580910E02089590910E02892B73
:102DC00080930E020895809590910E02982390931F
:102DD0000E02089510920E02089590910D02892B13
:102DE00080930D020895809590910D029823909301
:102DF0000D02089510920D02089590910C02892BF6
:102E000080930C020895809590910C0298239093E2
:102E10000C02089510920C0208958091EB01089520
:102E200008950C9410179091EB01981721F080935E
:102E3000EB010C94111708958091EB01882329F080
:102E40001092EB0180E00C9411170895E0911C01A1
:102E5000F0911D0180910E028083E0911C01F091A0
:102E60001D01808190910D02892B8083E0911C01CE
:102E7000F0911D01808190910C02892B80839091AB
:102E8000EB01992381F0E0911C01F0911D018081FB
:102E9000892B808380911C0190911D010E94321822
:102EA00081110E941C1780911C0190911D010C94AE
:102EB000420D08950C94591798E0899F90011124B0
:102EC000622B6093EA010E9452158091EA01859578
:102ED000859585950C945A171092EA0180E00C9420
:102EE0005A179091EA01809589238093EA01282F4F
:102EF000277071F4282F082E000C330B921713063D
:102F000039F08595859585950E9473150C946C17FD
:102F1000089590E080E00E944C2321E08C3E9E4F7B
:102F200009F020E0822F089582E090E00C94442381
:102F300083E090E00C944423682F83E090E00C94AD
:102F40005223CF9384E090E00E944423C82F81E273
:102F500090E00E944423982F8C2FCF910895CF9317
:102F6000C92F682F84E090E00E9452236C2F81E2E9
:102F700090E0CF910C945223AB01BC018FE090E024
:102F80000C946423AB01BC0183E190E00C946423B6
:102F900060E070E0CB010C94C21760E070E0CB0100
:102FA0000E94BC170C94C8176CEE7EEF90E080E096
:102FB0000E94702360E082E090E00E94522360E073
:102FC00083E090E00E9452231092E6011092E70104
:102FD0001092E8011092E90160E084E090E00E9424
:102FE000522360E081E290E00E94522360E085E09D
:102FF00090E00E94522360E086E090E00E9452231D
:103000006FEF87E090E00E94522340E050E0BA0169
:1030100088E090E00E94642360E08DE090E00E94F0
:10302000522340E050E0BA0188E190E00E9464231E
:1030300060E087E190E00E94522340E050E0BA0156
:103040008CE190E00E94642360E080E290E00E94C6
:1030500052230C94CD170C94D417682F8EE090E077
:103060000C945223FC01329680913001882321F088
:10307000809144029EE187FF96E080E0915008F441
:10308000089521912223D1F38F5FF8CF662301F1B8
:10309000209130012223F1F02091440227FF1AC031
:1030A000462F4695469546954E3190F4677021E03F
:1030B00030E002C0220F331F6A95E2F7840F911DA2
:1030C000FC01828190E02823392381E0232B69F4DD
:1030D00080E00895FC01329608962191261721F090
:1030E000E817F907D1F7F4CF81E008959C01FC01BE
:1030F00032969FEF80E04191461751F09F3F19F4BF
:10310000411101C0982F8F5F8630A9F79F3F09F4C6
:103110000895290F311D97FD3A95F90162830895AD
:10312000FC01329608962191261303C0DF01119706
:103130001C92E817F907B9F70895E62FE695E6958A
:10314000E695EE3168F4E80FF92FF11D677021E084
:1031500030E001C0220F6A95EAF78281822B8283D8
:103160000895E62FE695E695E695EE3170F4E80FC2
:10317000F92FF11D677021E030E001C0220F6A9540
:10318000EAF7209582812823228308952091300137
:10319000222329F02091440227FD0C949D180C94C1
:1031A000761820913001222329F02091440227FD36
:1031B0000C94B1180C949018FC0132968091300157
:1031C000882351F08091440287FF06C08EE1DF0121
:1031D0001D928A95E9F7089586E0F9CF089508953C
:1031E0000C94EF180E94F01880914A02843049F143
:1031F0001092100288E190E020E40FB6F894A895B0
:10320000809360000FBE2093600080E00E94C2089F
:103210000E94F01883B7817F846083BF83B7816089
:1032200083BF7894889583B78E7F83BF0FB6F89459
:10323000A895809160008861809360001092600082
:103240000FBE08950895CF930E94EE180E94FB06CA
:103250000E942219C0E08C2F0E945607811105C0E0
:10326000CF5FCA30C1F7CF91089581E0FCCF0895B8
:103270000C9437190E9447110E94360D0E94C20813
:103280000C9438191F921FB61F9211248F939F938D
:10329000AF93BF9380911002811113C080914002BF
:1032A00090914102A0914202B09143024196A11D2A
:1032B000B11D8093400290934102A0934202B093CB
:1032C0004302BF91AF919F918F911F901FBE1F909E
:1032D000189582E084BD93E095BD9AEF97BD8093E9
:1032E0006E0008952FB7F8948091400290914102AA
:1032F000A0914202B09143022FBF08959C014FB7A5
:10330000F8948091400290914102A0914202B091C4
:1033100043024FBF821B930B089578941F921FB6F0
:103320001F9211248F939F93AF93BF93809140027C
:1033300090914102A0914202B09143020196A11DD9
:10334000B11D8093400290934102A0934202B0933A
:103350004302BF91AF919F918F911F901FBE1F900D
:10336000189587E797E7909301088093000888E114
:103370009AE00FB6F894A895809360000FBE9093E2
:103380006000FFCF0E948917811102C00E942B1894
:103390000E94941780930F020E94A11790934502F8
:1033A000809344020E949817682F70E090E080E0BC
:1033B0000E94D0146091E2017091E3018091E401D8
:1033C0009091E5010C940A158091170280FF12C0BC
:1033D0006091230185E0689FB00111247595679580
:1033E0007595679560387105A8F561157105A1F1AE
:1033F000862F089581FF09C06091230185E0689FB1
:10340000B001112475956795EDCF6091230182FD80
:103410000AC0809116028823D1F090912201609118
:103420002301891728F085E0689FB0011124DACFC5
:10343000869FB001112485E0869F9001879F300D03
:103440001124692F70E0C9010E940923CBCF65E0E8
:1034500070E0CECF8FE7089581E008958091170244
:1034600080FF0CC060911F0170E0759567957595A0
:1034700067956115710549F1862F089581FF06C092
:1034800060911F0170E075956795F3CF60911F0102
:1034900082FD0BC0909115029923A1F060911E014D
:1034A00080911F01961738F0682F70E06038710521
:1034B00000F38FE70895899FC001112470E00E94F6
:1034C0000923F4CF61E070E0D7CF81E00895803F19
:1034D00031F40E94E419819580931B020895813F85
:1034E00019F40E94E419F8CF823F31F40E94E419E4
:1034F000819580931A020895833F19F40E94E4197C
:10350000F8CF893F29F40E942E1A80931C02089557
:103510008A3F21F40E942E1A8195F7CF8B3F31F418
:103520000E942E1A819580931D0208958C3F19F4F4
:103530000E942E1AF8CF843F31F4809119028160E5
:10354000809319020895853F21F4809119028260C9
:10355000F7CF863F21F4809119028460F1CF873F35
:1035600021F4809119028860EBCF883F21F480918B
:1035700019028061E5CF8D3F31F48091170281609F
:103580008093170208958E3F21F480911702826084
:10359000F7CF8F3FB9F7809117028460F1CF9091F8
:1035A0001A02803F59F480911B0287FF0DC01092D0
:1035B0001B0291110BC01092160208C0813F81F4CA
:1035C00080911B0218169CF3992381F080911C02B4
:1035D00090911D02892B09F064C010921502089584
:1035E000823F49F497FFF0CF10921A0280911B029C
:1035F0008111ECCFE0CF833F19F41916ACF3E4CF7F
:1036000020911C02893F29F41216F4F610921C0234
:10361000DBCF8A3F19F427FFD7CFF8CF20911D02C7
:103620008B3F29F427FFD0CF10921D02CDCF8C3FC6
:1036300019F41216CCF3C8CF843F31F480911902EB
:103640008E7F80931902C0CF853F21F480911902AB
:103650008D7FF7CF863F21F4809119028B7FF1CFC8
:10366000873F21F480911902877FEBCF883F21F4B7
:10367000809119028F7EE5CF8D3F31F48091170242
:103680008E7F80931702A0CF8E3F21F48091170286
:103690008D7FF7CF8F3F09F097CF809117028B7FF7
:1036A000F0CF08950E9472199C0190911A028091A6
:1036B0001B02982B21F03093140220931302909157
:1036C0001C0280911D02982B21F03093120220934E
:1036D000110288E192E00C945C0DEF92FF920F933F
:1036E0001F93CF93DF9300D000D000D0CDB7DEB7CB
:1036F00086E0E8E1F2E0DE01119601900D928A95F4
:10370000E1F7E0901A02F0901B0200911C02109168
:103710001D0210921A0210921B0210921C021092AB
:103720001D028E2D8F2991F0809113029091140229
:103730000E947E19AC0190911602992309F43FC0B2
:10374000809124018417150608F447C0802F812B2F
:1037500091F080911102909112020E947E19AC01A9
:1037600090911502992309F477C080912001841764
:10377000150608F47FC080911A0290911B02892BD4
:1037800090911C02892B90911D02892B11F00E94AF
:10379000521B86E0FE013196A8E1B2E001900D9245
:1037A0008A95E1F726960FB6F894DEBF0FBECDBF1F
:1037B000DF91CF911F910F91FF90EF90089520918D
:1037C00025018AE0289F900111242417350708F06D
:1037D000BDCF9F5F9093160202C09F3FD1F7EE20AE
:1037E00059F00E94E4199FEF1E140CF491E0899F98
:1037F000802D112480931A02FF2059F00E94E419B1
:103800009FEF1F140CF491E0899F802D1124809369
:103810001B0230911A02332309F498CF20911B0226
:10382000222309F493CF45EB3403C00111249923DB
:1038300059F090931A0245EB24039001112433238D
:1038400039F030931B0282CF81E080931A02F3CFCC
:1038500081E080931B027ACF209121018AE0289F8A
:10386000900111242417350708F085CF9F5F9093AE
:10387000150202C09F3FD1F7002359F00E942E1A73
:103880009FEF10160CF491E0899F802D11248093F6
:103890001C02112359F00E942E1A9FEF11160CF4EE
:1038A00091E0899F802D112480931D0230911C028C
:1038B000332309F460CF20911D02222309F45BCF4A
:1038C00045EB3403C0011124992359F090931C0255
:1038D00045EB240390011124332339F030931D026A
:1038E0004ACF81E080931C02F3CF81E080931D02D8
:1038F00042CF86E0E8E1F2E0DF011D928A95E9F728
:1039000010921602109215021092170208958091DB
:103910003E02089508959C0182E08093E9009FEFA4
:103920008091E800915085FD06C085ED8A95F1F7FC
:1039300000009111F5CF8091E80085FF0CC050E0A8
:1039400040E066E070E0C9010E94781E8091E800C6
:103950008E778093E8000895CF93DF93EC018091F8
:1039600030018823B1F18091440287FF32C060E2C8
:1039700082E08093E9008FEF9091E800815095FDFF
:1039800006C095ED9A95F1F700008111F5CF809171
:10399000E80085FF1BC08091300170E050E040E0FE
:1039A000811104C050E040E068E070E0CE010E9468
:1039B000781E8091E8008E778093E80080E2FE0117
:1039C000AEE1B2E001900D928A95E1F7DF91CF91DF
:1039D000089568E081E0CDCF08958091490281117A
:1039E00009C00E9408200E9465208091E200846046
:1039F0008093E20008951092490208950895089571
:103A00000C943A1942E061EC81E00E94841F42E28A
:103A100061EC82E00C94841F80914C02833009F4A5
:103A20005FC030F48130C1F1823009F49BC0089549
:103A30008A3009F487C08B3009F46DC0893009F0F1
:103A40004EC080914B02813209F049C080914F02F3
:103A500090915002029708F042C08091E800877F61
:103A60008093E8008091E80082FF35C09091F300D8
:103A70008091F200029729F48091F1008B7F8130D0
:103A800021F48091F10080933E028091E8008B77D1
:103A90008093E8000C94B81F80914B02813AF9F4AE
:103AA0008091E800877F8093E80080914F02909199
:103AB0005002892B61F460E28EE192E070E00E9496
:103AC000C71E8091E8008B778093E800089560E03E
:103AD00090E080E0F3CF80914A028111C3CF089536
:103AE00080914B02813AD9F780914F029091500218
:103AF000892BA9F78091E800877F8093E800809167
:103B0000E80080FFFCCF809130018093F10080912C
:103B1000E8008E77BDCF80914B02813201F7809112
:103B20004F0290915002892BD1F68091E800877F57
:103B30008093E8000E94B81F80914D02809330016D
:103B40000C94471180914B02813249F68091E80034
:103B5000877F8093E8000E94B81F80914E02809377
:103B60003F02089580914B02813A09F0B8CF8091CD
:103B7000E800877F8093E8008091E80080FFFCCF19
:103B800080913F02C2CF84B7877F84BF0FB6F8947D
:103B9000A895809160008861809360001092600019
:103BA0000FBE80E890E00FB6F89480936100909388
:103BB00061000FBE0E94A20D0E9408200E94652095
:103BC0008091E20084608093E20078940E94EE226B
:103BD0000E94AC0D86E291E00E94310D80914A0274
:103BE000853019F00E94B40DF9CF0E94F21880912F
:103BF0004802882399F30E942319882379F30E94AD
:103C0000621EECCF0C94041E292F3327233031057C
:103C100019F168F42130310509F44AC02230310528
:103C200009F44BC090E080E030E020E028C0213271
:103C3000310579F122323105A9F780E490E027E4DB
:103C400037E061157105D9F08AE890E02DEB36E098
:103C500061307105A1F0E6CF99278130910599F087
:103C6000009741F08230910589F00397D9F6ECE492
:103C7000F6E002C0ECE6F6E0849190E09F01FA01E4
:103C8000318320830895E0E6F6E0F6CFE2E5F6E042
:103C9000F3CF89E090E022E836E06115710579F311
:103CA00089E090E02BE936E06130710541F3BACF4D
:103CB00082E190E02BEA36E0E2CF8BE390E020E770
:103CC00036E0DDCF80E189BD82E189BD09B400FE27
:103CD000FDCF8091D8008F7D8093D8008091E00047
:103CE00082608093E0008091E00081FDFCCF089528
:103CF000AF92BF92CF92DF92FF920F931F93CF9319
:103D0000DF936C01EB018A010E94D71FF82E81110D
:103D100023C00115110539F0F80180819181C81B7C
:103D2000D90BC80ED91EB12CA12C2097A9F08091D7
:103D3000E80085FD22C08091E8008E778093E8003E
:103D400001151105A1F0F80180819181A80EB91E1D
:103D5000B182A08285E0F82E8F2DDF91CF911F9147
:103D60000F91FF90DF90CF90BF90AF9008950E9489
:103D7000D71F8823D1F2F82EEFCFF60181916F0182
:103D80008093F1002197FFEFAF1ABF0ACECFFC015D
:103D9000809151029091520286179707A0F0611509
:103DA000710529F49091E8009E779093E80090E0E7
:103DB0006115710551F4911108C08091E80082FFEE
:103DC00034C080E00895BC01F2CF80914A0288237C
:103DD000C1F18530C1F18091E80083FD30C0809150
:103DE000E80082FDEACF8091E80080FFE1CF80917A
:103DF000F3002091F200382F6115710519F0283079
:103E0000310558F091E02830310509F090E020911B
:103E1000E8002E772093E800CBCF81918093F100CA
:103E2000615071092F5F3F4FE7CF80914A0288238D
:103E300041F0853041F08091E80083FFBECF81E002
:103E4000089582E0089583E00895FC018091510275
:103E50009091520286179707A0F06115710529F419
:103E60008091E8008E778093E80090E061157105FD
:103E700051F4911108C08091E80082FF35C080E0C4
:103E80000895BC01F2CF80914A028823C9F18530A0
:103E9000C9F18091E80083FD31C08091E80082FD86
:103EA000EACF8091E80080FFE1CF8091F30020917C
:103EB000F200382F6115710519F02830310558F0DE
:103EC00091E02830310509F090E08091E8008E778C
:103ED0008093E800CBCF84918093F10031966150BC
:103EE00071092F5F3F4FE6CF80914A02882341F04E
:103EF000853041F08091E80083FFBDCF81E00895D7
:103F000082E0089583E00895982F973028F08F700D
:103F10008093E90081E008959093E900242F762FA3
:103F200050E0981731F07091EC002091ED00509125
:103F3000F00021FD02C09F5FE8CF3091EB003E7F93
:103F40003093EB003091ED003D7F3093ED003091E8
:103F5000EB0031603093EB007093EC002093ED00A8
:103F60005093F0002091EE0027FDE5CF80E008950A
:103F700080914B0287FF13C08091E80082FF06C04A
:103F80008091E8008B778093E80004C080914A021A
:103F90008111F2CF089580914A028823D9F380914C
:103FA000E80080FFF8CF8091E8008E77ECCF209179
:103FB000E4003091E50095E6A9012091EC00822F04
:103FC000817020FF06C08091E80080FF06C080E07D
:103FD00008952091E80022FD1AC080914A028823AA
:103FE00089F0853089F08091EB0085FD0FC020912C
:103FF000E4003091E50042175307F9F29150E1F6E1
:1040000084E0089582E0089583E0089581E00895B2
:104010000E9476200E947E20E0EEF0E080818160A8
:104020008083E8EDF0E080818F77808319BCA7ED75
:10403000B0E08C918E7F8C9380818F7E80831092F4
:10404000490208950F931F93CF93DF930E94762028
:104050000E947E20C8EDD0E088818F778883888198
:104060008068888388818F7D888319BC10924A027A
:1040700010924602109248021092470200EE10E0A1
:10408000F80180818B7F808388818160888342E012
:1040900060E080E00E94841FE1EEF0E080818E7F8E
:1040A0008083E2EEF0E0808181608083808188609F
:1040B0008083F80180818E7F8083888180618883FE
:1040C000DF91CF911F910F910895E8EDF0E080818D
:1040D0008F7E8083E7EDF0E080818160808384E0E3
:1040E00082BF81E0809349020C942220E8EDF0E049
:1040F00080818E7F80831092E20008951092DA0012
:104100001092E10008951F920F920FB60F921124A2
:104110002F933F934F935F936F937F938F939F93CF
:10412000AF93BF93EF93FF938091E10082FF0BC0A9
:104130008091E20082FF07C08091E1008B7F809335
:10414000E1000E94ED228091DA0080FF19C0809189
:10415000D80080FF15C08091DA008E7F8093DA004E
:104160008091D90080FF96C080E189BD82E189BD40
:1041700009B400FEFDCF81E080934A020E94ED1C4D
:104180008091E10080FF19C08091E20080FF15C09E
:104190008091E2008E7F8093E2008091E200806156
:1041A0008093E2008091D80080628093D80019BC8F
:1041B00085E080934A020E94FF1C8091E10084FF09
:1041C0002BC08091E20084FF27C080E189BD82E19D
:1041D00089BD89B5982F917080FFFBCF8091D80061
:1041E0008F7D8093D8008091E1008F7E8093E100E5
:1041F0008091E2008F7E8093E2008091E2008160F6
:104200008093E20080914602882309F449C084E04B
:1042100080934A020E94001D8091E10083FF29C023
:104220008091E20083FF25C08091E100877F809329
:10423000E10082E080934A02109246028091E10000
:104240008E7F8093E1008091E2008E7F8093E20078
:104250008091E20080618093E20042E060E080E0D3
:104260000E94841F8091F00088608093F0000E947B
:10427000FE1CFF91EF91BF91AF919F918F917F9124
:104280006F915F914F913F912F910F900FBE0F90C3
:104290001F90189519BC10924A020E94FB1C70CF07
:1042A0008091E30087FD93E090934A02B3CF1F9281
:1042B0000F920FB60F9211242F933F934F935F935A
:1042C0006F937F938F939F93AF93BF93CF93DF931E
:1042D000EF93FF93D091E900DF708091EC00C82F3D
:1042E000C17080FDC0E81092E9008091F000877FE6
:1042F0008093F00078940E949B211092E9008091B5
:10430000F00088608093F000CD2BCF70C093E9005F
:10431000FF91EF91DF91CF91BF91AF919F918F91DD
:104320007F916F915F914F913F912F910F900FBEB1
:104330000F901F9018951F93CF93DF93CDB7DEB7E3
:10434000AA970FB6F894DEBF0FBECDBF8BE492E004
:104350002091F100FC012193CF01F2E083359F070A
:10436000B9F70E940C1D8091E80083FF1EC1809167
:104370004B0290914C029A3008F017C1E92FF0E0FF
:10438000EA55FC4D0C941D23803899F0823809F0D1
:104390000CC180914F028F70873008F006C1809366
:1043A000E9008091EB0085FB882780F91092E900F5
:1043B00006C08091470290914802911182609091CD
:1043C000E800977F9093E8008093F1001092F1004D
:1043D0008091E8008E77E5C0882309F4D3C082304D
:1043E00009F0E3C080914D028111D6C080914F0247
:1043F0008F702FEF280F263008F0D7C08093E90088
:104400002091EB0020FFC8C0933031F48091EB0085
:1044100080628093EB00C0C09091EB00906190931C
:10442000EB0021E030E001C0220F8A95EAF72093EB
:10443000EA001092EA008091EB008860EACF8111D7
:10444000B4C010914D021F778091E3008078812BDA
:104450008093E3008091E800877F8093E8000E94CA
:10446000B81F8091E80080FFFCCF8091E300806856
:104470008093E30082E0111183E080934A0295C0AB
:104480008058823008F091C080914D0290914E0288
:104490008C3D23E09207A1F583E08A838AE2898339
:1044A0004FB7F894DE01139620E03EE051E2E32F8F
:1044B000F0E050935700E49120FF03C0E295EF70C5
:1044C0003F5FEF708E2F90E0EA30C0F0C7968D937B
:1044D0009D932F5F243159F74FBF8091E800877F6C
:1044E0008093E8006AE270E0CE0101960E94C71E48
:1044F0008091E8008B778093E80057C0C096E7CFA3
:1045000060914F0270915002AE014F5F5F4F0E9469
:10451000021EBC01892B09F448C09091E800977FE6
:104520009093E80089819A810E94251FE1CF80380D
:10453000E1F58091E800877F8093E8008091460252
:104540008093F10045CF811130C090914D0292309F
:1045500060F58091E800877F8093E80090934602A1
:104560000E94B81F80914602882311F084E005C0A4
:104570008091E30087FDFACF81E080934A020E9498
:10458000021D13C080914D02813079F481E0933097
:1045900009F080E0809348021092E9008091E800E1
:1045A000877F8093E8000E94B81F8091E80083FF16
:1045B0000AC08091E800877F8093E8008091EB003B
:1045C00080628093EB00AA960FB6F894DEBF0FBE10
:1045D000CDBFDF91CF911F9108950895CF93809122
:1045E0004A028823A1F0C091E900CF709091EC00BD
:1045F000892F817090FD80E8C82B1092E90080918E
:10460000E80083FD0E949B21CF70C093E900CF9109
:10461000089597FB072E16F4009407D077FD09D074
:104620000E94232307FC05D03EF4909581959F4F6F
:104630000895709561957F4F0895EE0FFF1F0590C7
:10464000F491E02D0994AA1BBB1B51E107C0AA1FDE
:10465000BB1FA617B70710F0A61BB70B881F991F23
:104660005A95A9F780959095BC01CD010895FB015D
:10467000DC0104C08D910190801921F4415050401B
:10468000C8F7881B990B0895F999FECF92BD81BD9B
:10469000F89A992780B50895A8E1B0E042E050E08B
:1046A0000C947823262FF999FECF92BD81BDF89AFC
:1046B000019700B4021639F01FBA20BD0FB6F89466
:1046C000FA9AF99A0FBE08950396272F0E94532352
:1046D0000E945223252F0E945323242F0C945323EE
:1046E0000196272F0E9453230C945223DC01CB0107
:1046F000FC01F999FECF06C0F2BDE1BDF89A3196F2
:1047000000B40D9241505040B8F70895F894FFCF8F
:10471000340F340F8C0F8C0F610FDE0F610F610FA0
:10472000E90F751084108410E010610F610FE9101B
:10473000561156115F115F1161115F115F115F1109
:104740005611561166115F115F116611C421EC21DB
:10475000D522EC21D5221F224022D5229722A32246
:1047600005015F01000000015D015F0105600101BD
:104770005D015E01000000056501FFFFEC012808F6
:10478000641E140A321E871CAC1C8B1C8A1CEC1C79
:1047900001F4F5F6F73133946697C6340000000053
:0247A000000017
:00000001FF
