:100000000C942C030C9473030C9473030C947303DF
:100010000C9473030C9473030C9473030C94730388
:100020000C9473030C9473030C94021E0C94D61E50
:100030000C94C1160C9473030C9473030C94730307
:100040000C9473030C9473030C9473030C94730358
:100050000C9473030C940C170C9473030C9473039B
:100060000C9473030C9473030C9473030C94730338
:100070000C9473030C9473030C9473030C94730328
:100080000C9473030C9473030C9473030C94730318
:100090000C9473030C9473030C9473030C94730308
:1000A0000C9473030C9473030C9473030102E260C9
:1000B0000103E2000102E2600103E20029001E00E8
:1000C0001F002000210022002B0014001A0008004D
:1000D00015001700496404001600070009000A0013
:1000E0004A001D001B0006001900050000008B6877
:1000F000E00001582C002A5D2D0027002600250075
:10010000240023002F00130012000C0018001C0014
:10011000340033000F000E000D000B004D003800BE
:10012000370036001000110000008A002C5D280006
:100130002A002B5D29021E021F0220022102220238
:100140002B0214021A0208021502170249020402C5
:100150001602070209020A024A021D021B020602D7
:100160001902050200008B00E0002C020100E202EF
:100170002D02270226022502240223022F02130247
:1001800012020C0218021C02340233020F020E0289
:100190000D020B024D023802370236021002110224
:1001A00000008A002C5D28004C00E30229001E009C
:1001B0001F002000210022002B0014001A0007005D
:1001C00009000A00496404001200080018000C002D
:1001D0004A001D001B0006001900050000008B6886
:1001E000E00003582C002A5D2D0027002600250082
:1001F000240023002F0013001500170016001C0018
:10020000340033000F000E000D000B004D003800CD
:10021000370036001000110000008A002C5D280015
:100220004C002B5D29021E021F0220022102220225
:100230002B0214021A02070209020A0249020402EE
:100240001202080218020C024A021D021B020602D8
:100250001902050200008B00E0002C020100E202FE
:100260002D02270226022502240223022F02130256
:100270001502170216021C02340233020F020E028C
:100280000D020B024D023802370236021002110233
:1002900000008A002C5D28004C00E3023A003B007D
:1002A0003C003D003E003F00010001000100010054
:1002B000010001000100010001000100285DDE5C79
:1002C0000100010001000100295D005C0000010047
:1002D000E0002C00E1000100450044004300420022
:1002E0004100400001000100010001000100010087
:1002F000010001004F0052005100500001000100B8
:100300000100010001000100000001004C00280074
:100310002A002D5D3A003B003C003D003E003F00BE
:1003200001000100010001000100010001000100C5
:1003300001000100285DDE5C0100010001000100F8
:10034000295D005C00000100E0002C00E1000100DC
:100350004500440043004200410040000100F90014
:10036000F500F600F40001000100FA00F300F000CF
:10037000F100F20001000100010001000100010094
:10038000000001004C0028002A002D5D0100010042
:100390000100010001000100010001000100010055
:1003A0000100010001000100010001000100010045
:1003B0000100010001000100010001000000010036
:1003C0000100010001000100010001000100010025
:1003D0000100010001000100010001000100010015
:1003E0000100010001000100010001000100010005
:1003F00001000100010001000000010001000100F6
:100400000100010029001E001F0020002100220021
:100410002B002E0287021F0224022F024900330202
:100420002D0034022D0234004A001E023802200240
:100430002102220200008B00E000E1002C00E2001B
:100440002D00270026002500240023002F00300067
:100450003002360225022302340032003202370213
:10046000260289024D00870036002E002F00010071
:1004700000008A00010028002A00E30000000000BC
:10048000000000002A2B28000000000000000000EF
:100490000000000000000029000000002C1E342095
:1004A000212224342627252E362D3738271E1F20BB
:1004B0002122232425263333362E37381F04050600
:1004C0000708090A0B0C0D0E0F1011121314151644
:1004D0001718191A1B1C1D2F3130232D3504050642
:1004E0000708090A0B0C0D0E0F1011121314151624
:1004F0001718191A1B1C1D2F3130354C0000000035
:1005000000000000000000000000000000000000EB
:100510007E0F00D4FFFFFFC7000000780403300007
:1005200000000C036D0073007700350038000000F8
:100530000A0378006300640030000000040309042B
:1005400009023B00020100A032090400000103017E
:100550000100092111010001224000070581030863
:10056000000A090401000103000000092111010033
:1005700001228A000705820320000A1201100100EF
:1005800000000866320000010001020301050109B4
:1005900002A10185020901A100050919012905151A
:1005A00000250195057501810295017503810105FD
:1005B00001093009311581257F95027508810609E9
:1005C000381581257F950175088106050C0A3802CA
:1005D0001581257F950175088106C0C005010906B2
:1005E000A1018505050719E029E7150025019508F2
:1005F000750181020507190029EF1500250195F005
:1006000075018102050819012905950575019102F9
:10061000950175039101C005010906A1010507199E
:10062000E029E715002501950875018102950175FE
:100630000881010507190029FF150026FF0095060E
:1006400075088100050819012905950575019102B4
:10065000950175039101C00011241FBECFEFDAE0B0
:10066000DEBFCDBF04B603FE27C080912602909165
:100670002702A0912802B09129028730904BA74011
:10068000B04BD1F410922602109227021092280249
:100690001092290214BE84B7877F84BF0FB6F894E6
:1006A000A89580916000886180936000109260003E
:1006B0000FBEE0E0F8E3099511E0A0E0B1E0E4E569
:1006C000F2E402C005900D92A632B107D9F722E0FC
:1006D000A6E2B1E001C01D92A632B207E1F70E9486
:1006E000421B0C94F8200C9400000E94270B80936E
:1006F00026010C941D040C94200BCF93DF93EC0186
:100700000E941B15BE0190E080E0DF91CF910C9418
:100710004F12CF93DF93D62FC42F0E94B11288239C
:1007200051F08D2F0E94B112882329F08C2FDF9178
:10073000CF910C94D1128C2FDF91CF910C94F212A7
:10074000CF9388529D45C1E08830910560F4FC014B
:10075000E650FF4DDB011296CC910C949C2081E079
:1007600090E0C11107C08C2FCF910895CC23D9F30D
:1007700084E090E00E947D03C0E0F5CF87E0CC23C9
:1007800099F10E94D112F8CFCC2381F080912701FA
:10079000811103C081E08093270184E00E94D1127F
:1007A00046E065E084E00E948903E6CF10922701CD
:1007B00084E00E94F21246E065E084E00E94890332
:1007C000D2CFCC2349F080912701811103C081E071
:1007D0008093270185E0E2CF85E00E94F21210921B
:1007E0002701E9CF86E0CBCF0E94F212BCCFCC2309
:1007F00081F08091170282FBCC27C0F982FD04C0F2
:1008000081E90E94F90BAFCF84EB90E00E942205B2
:10081000B3CF81E90E942C0CA6CFCC2361F080914C
:10082000170282FBCC27C0F982FD02C080E9E9CF24
:100830008CEA90E0EBCF80E9EDCF089581E0089558
:100840000C94A00308950C9422041F93CF93DF937C
:1008500000D000D00F92CDB7DEB749835A836B83A7
:100860003091400189819A8131111DC06623B9F010
:100870002223A9F00E94C413182F682F89819A811E
:100880000E946D1369817A81812F0F900F900F90D4
:100890000F900F90DF91CF911F910C948E050E94C5
:1008A0009B13182FEFCF0E94C41369817A81EDCF7B
:1008B000FC01262F408151816281738184810C94D7
:1008C0002504CF93DF93EC0160E00E945804BE0141
:1008D000DF91CF910C942304FF920F931F93CF933A
:1008E000DF93E82FF0E0E458FB4FF490C82FC69553
:1008F000C695C695D0E0FE01E45FFA4F049187707B
:1009000010E0082E02C0159507950A94E2F70170D1
:100910001127C450DB4FFE01C491D0E002C0D59531
:10092000C7958A95E2F7C170DD270115110519F009
:1009300081EE0E94F90B209719F086EE0E94F90BC8
:100940008F2D0E945B0CCD2B19F086EE0E942C0C93
:10095000012B41F081EEDF91CF911F910F91FF901C
:100960000C942C0CDF91CF911F910F91FF90089563
:10097000EF92FF920F931F93CF93DF938C01F62E8C
:100980008AE0E82EF8018491882309F454C081306C
:1009900009F04DC0E8012196FE018491813091F467
:1009A0002196FE0184910E945B0C8E010F5F1F4F08
:1009B0008F2D815038F3EFE9FFE03197F1F700C058
:1009C0000000F7CF823039F4E8012296FE018491CD
:1009D0000E94F90BEACF833039F4E8012296FE0138
:1009E00084910E942C0CE1CF8430F9F6E801229624
:1009F000FE01249190E080E0FE0131962053330BFC
:100A00002A30310548F0019780F2EFE9FFE0319795
:100A1000F1F700C00000F7CFE89EA001E99E500D5D
:100A20001124C901840F951F2491EF01E5CF0E9485
:100A30006C04E801BACFDF91CF911F910F91FF9025
:100A4000EF90089560E00C94B8040E94081581119D
:100A500002C00E94AA150C9475030C947C0708959B
:100A60000C942F0581E008950C943205CF93C82F84
:100A70000E9430058C2FCF910C94340508950E946C
:100A8000C60E0E943E052FEF84E39CE0215080407B
:100A90009040E1F700C000000C9430170F931F93B3
:100AA000CF93DF93EC0161E00E9458048C01BE01FA
:100AB0000E942004882329F1BE01C8010E94110967
:100AC0008823F9F0BE01C8010E9463098823C9F098
:100AD000BE01C8010E94860A882399F08A81882372
:100AE00039F001158CE5180751F00E3D1C4579F0E1
:100AF000CE01DF91CF911F910F910C941E040E94A3
:100B00003F0580E0DF91CF911F910F9108950E94E2
:100B1000AA15F7CF90E080E008950895972F70E030
:100B200026E0929F600D711D1124FB019CE3899FBB
:100B3000E00DF11D1124EE0FFF1FE454FF4F8591CE
:100B400094910895FC01EE0FFF1FE45EFA4F85912A
:100B500094910895CF93DF930E948E050E94A10681
:100B6000EC01811521E59207E8F5811530E5930741
:100B700008F09BC08F3F910509F0F0F4803F91058C
:100B800008F085C0803E910580F4803C910508F016
:100B900080C08130910561F0009751F00497813A4F
:100BA000910530F0D0E0C0E003C0883E9105D0F759
:100BB000CE01DF91CF9108958115904338F4C1158E
:100BC00080E2D807A8F3CE019F7065C0C11590E4FC
:100BD000D90708F067C0CE019927D3FF60C0EC01A8
:100BE000D86CE6CF811525E5920700F5811534E52F
:100BF000930708F08EC0811543E5940708F076C08E
:100C0000C11582E5D80708F46CC0CE01837099271E
:100C100021E030E002C0220F331F8A95E2F7C6952B
:100C2000C69580E2C89FE001112457C0C11599E51F
:100C3000D907A8F4C11528E5D20708F06FC0C1157F
:100C400036E5D30708F0AECF8C2F0E943807C82FA7
:100C5000D0E0DC2FCC27CC27DF71D062A9CFC11523
:100C60004AE5D40708F45FC0CE0190568115904242
:100C700008F098CF8D2F8F710E94380790E0982F41
:100C8000882788279F719C012C2BE901E6CFD0652E
:100C90008FCF805C91090E94A205EC0189CFEC0105
:100CA000D06C86CFDF70D06A83CFE4E096958795CD
:100CB000EA95E1F783702C2F26952695237040E264
:100CC000249F90011124382B8C2F8370C1E0D0E039
:100CD00002C0CC0FDD1F8A95E2F7C22BD32BDC6854
:100CE00067CFDC2FCC27C16FD06A62CF8370992782
:100CF00021E030E002C0220F331F8A95E2F7C6954B
:100D0000C69590E2C99FE0011124C22BD32BDA686B
:100D10004FCFD82FCC27C46FD06A4ACFDC2FCC2737
:100D2000C06FD06A45CF8C2F8F700E94380734E097
:100D3000D695C7953A95E1F7CF709C2FEC01D06915
:100D400037CF82389105B1F1B0F48133910509F4C0
:100D500075C048F48932910509F469C08A32910559
:100D600009F473C008958533910509F459C0893396
:100D7000910501F10895833E9105A9F138F4803E73
:100D80009105F9F0823E910549F10895863E91055D
:100D9000A9F1873E9105C9F1843E910519F520918D
:100DA000180221FF1FC08091170284FD14C087EE36
:100DB00090E00895209117022370A1F080EE90E05A
:100DC00008952091170220FD47C03091180230FF8E
:100DD00009C024FF44C090E080E004C020911702C5
:100DE00022FDF7CF08952091170222FD3BC03091DC
:100DF000180230FDE3CF24FFF5CFEDCF209117028D
:100E000023FFF0CF24FDE7CFD2CF2091170223FD9F
:100E10002CC03091180231FFEECF84EE90E008959F
:100E20002091170225FFDECF89E290E008952091FE
:100E3000170225FFD7CF85E390E008952091170290
:100E400026FFD0CF8AE290E008952091170226FF76
:100E5000C9CF81E390E0089589E390E0089583EE9F
:100E600090E0089582EE90E0089586EE90E0089577
:100E70009091170292FF06C0282F28712830F9F4AC
:100E8000877F846093FF06C0282F28712831F1F4F2
:100E9000877E84612091180220FF06C0382F3871A8
:100EA0003830D9F4877F816021FF06C0282F287150
:100EB0002831D1F4877E816194FD877E0895282FA3
:100EC00024712430F9F68B7F8860DCCF282F2471C1
:100ED000243101F78B7E8861DDCF382F31713130BD
:100EE00019F78E7F8860E0CF282F2171213121F7FB
:100EF0008E7E8861E1CF08950C947B07E82FF0E0A7
:100F0000E75FFD4F80810895089580EA8A95F1F7A3
:100F10000895ABE1B1E061E070E08D91E82FE295DA
:100F2000EF70F0E041A18F709B0101C0220F8A9504
:100F3000EAF7922F9095942391A382A1822B82A30A
:100F400081E0A532B80749F7A5E1B1E061E070E0C2
:100F50008D91E82FE295EF70F0E041A18F709B0139
:100F600001C0220F8A95EAF7922F9095942391A3BE
:100F700082A1822B82A381E0AB31B80749F7EFEF62
:100F8000F1E0A9E0B2E089E092E011921D928E17A3
:100F90009F07D9F78AE00E944F080C9425058F928D
:100FA0009F92AF92BF92CF92DF92EF92FF920F93F8
:100FB0001F93CF93DF938BE1A82E81E0B82E0FEF24
:100FC00011E0912CCC24C394D12CF50181915F01C7
:100FD000C82FC295CF70D0E099A18F70760101C063
:100FE000EE0C8A95EAF7892F8E2989A38AA18E2C87
:100FF000809488218AA30E948507E5E1F1E050E012
:1010000040E020E03191A32FA295AF70B0E0909620
:101010008C9190E03F7002C0959587953A95E2F7E4
:1010200080FD39C08C2D042E01C0880F0A94EAF788
:10103000282B4F5F5F4F4630510521F789A1882249
:1010400089A28AA1E82AEAA2F8018081281729F159
:10105000208381E0982A0F5F1F4FF5E2AF16F1E081
:10106000BF0609F0B2CF292D4AE069E072E08FEFA8
:1010700091E00E9450080E942D05892DDF91CF91AB
:101080001F910F91FF90EF90DF90CF90BF90AF90A6
:101090009F908F90089580E0CBCF80E0DBCF0895C4
:1010A000FF920F931F93CF93DF93F82E092F162FE4
:1010B000D72FC42F222349F081E080932A010E9478
:1010C000F116909329018093280180912A018823A9
:1010D000A1F080912801909129010E94FD160697A8
:1010E00060F0EF2DF02FA12FBD2FCE0FDF2FD11DE0
:1010F000EC17FD0741F410922A01DF91CF911F9167
:101100000F91FF90089581918D93F2CFAF92BF928E
:10111000CF92DF92EF92FF920F931F93CF93DF93C3
:101120007C015B01C42FD22FFC0182818823F9F05E
:1011300040932D010E94F11690932C0180932B0176
:1011400080E28C0F883008F061C0C77081E001C078
:10115000880FCA95EAF7DF91CF911F910F91FF9009
:10116000EF90DF90CF90BF90AF900C946E0C1091E9
:101170002D01141340C080912B0190912C010E94ED
:10118000FD166C01B701C5010E942A11C816D906C7
:1011900090F5C0E2CD0F1D17B9F080E2810F8830C5
:1011A00040F4177081E001C0880F1A95EAF70E9499
:1011B000750CC83048F481E09D2F977001C0880FEE
:1011C0009A95EAF70E946E0C802F0E945B0CC83043
:1011D000E8F4D77081E001C0880FDA95EAF7DF9173
:1011E000CF911F910F91FF90EF90DF90CF90BF9024
:1011F000AF900C94750C80E28C0F883038F4C77077
:1012000081E001C0880FCA95EAF7E9CFDF91CF915D
:101210001F910F91FF90EF90DF90CF90BF90AF9014
:1012200008950F939C01CB01233F4CE5340759F1FE
:10123000A8F4283DFCE53F0701F1293D4CE53407C2
:10124000D1F1273D3C4591F406E221EE41EE67EDF8
:101250007CE50E94860880E00F910895253FFCE51B
:101260003F07E9F0B0F0263F3C45F9F0FC018281F0
:10127000882339F110922D01EFCF07E225EE45EEDC
:1012800068ED7CE5E6CF06E221EE40EE63EF7CE51B
:10129000E0CF07E225EE44EE64EF7CE5DACF06E22C
:1012A00021EE42EE65EF7CE5D4CF07E225EE46EE77
:1012B00066EF7CE5CECF08E221E045EE69ED7CE506
:1012C000C8CF81E0C9CFCF93DF93EC01FB018281CE
:1012D000882309F419C1C230FCE5DF07C0F1C6312B
:1012E0009CE5D90730F09E012A5F3C452930310545
:1012F00070F50E9420159093180280931702C03158
:10130000ECE5DE0709F4CFC008F05BC0C8308CE51F
:10131000D80709F4B6C088F5C430ECE5DE0709F457
:10132000A8C0C0F4C2308CE5D80709F49CC08091F5
:1013300017028260C330DC4509F498C0809117021F
:10134000909118020E942E150E94C60E80E0DF9137
:10135000CF910895809117028061C630ECE5DE07D9
:1013600009F484C0809117028860C730DC4508F416
:101370007DC080911702806279C0CC308CE5D8079F
:1013800009F489C070F4809117028C60CA30ECE5D2
:10139000DE0709F46BC008F478C0809117028E7FD5
:1013A00065C0CE308CE5D80709F479C0809117026A
:1013B0008B7FCF30DC4508F459C0809117028F7EB7
:1013C00055C0CB3FECE5DE0709F457C030F5C3311B
:1013D0008CE5D80709F46FC078F4C131ECE5DE077D
:1013E00009F465C0C231DC4509F0A8CF0E94C60EE1
:1013F000809117028F773AC0C5318CE5D80709F480
:1014000062C008F476C0809118028160CA3FDC4552
:1014100009F094CF8093180291CFCF3FFCE5DF070E
:1014200009F44DC088F4809118028D7FCD3F9CE572
:10143000D90781F3809118028E7FCE3FDC4550F3AF
:10144000809118028360E6CFC130FDE5DF0709F423
:1014500059C008F444C080E0C230DD4509F06ECFC9
:101460000E94AC156BCF80911702816080931702A8
:1014700065CF809117028460F9CF80911802826055
:10148000C9CF809117028064F1CF0E94C60E80916F
:1014900017028068EBCF809117028D7FE7CF809194
:1014A0001702877FE3CF809117028F7DDFCF809176
:1014B00017028F7BDBCF80911702837FD7CF80917C
:1014C00018028C7FA7CF8091170282FB992790F991
:1014D00021E0922790FB82F990FB83F9C7CF80919E
:1014E0001802982F909591708E7F892B90FB81F92F
:1014F00091CF0E94C60E90911702892F97FB87F912
:101500008058B4CF81E0ACCF81E021CFCF93DF937F
:10151000EB0186319C4511F50E9459149A8199235B
:1015200099F08A7A91E009F490E090932E0181116C
:1015300009C089E20E9434140E94A51480E0DF9162
:10154000CF91089585E3F6CF80912E01811104C0DB
:1015500089E20E943B14F0CF85E3FBCF81E0EFCF1F
:1015600090933401809333010895E0913301F09119
:101570003401309721F00190F081E02D099480E052
:101580000895E0913301F0913401309799F0209162
:101590001401222359F02091170227FF07C0DC0114
:1015A0002C9111962C93119725E02C930280F381B6
:1015B000E02D09940895E0913301F09134013097C2
:1015C00039F022E0DC012C930480F581E02D0994B0
:1015D000089520913101309132012817390771F0B7
:1015E0009093320180933101E0913301F091340105
:1015F000309721F00680F781E02D0994089520911D
:101600002F01309130012817390771F09093300184
:1016100080932F01E0913301F0913401309721F054
:101620000084F185E02D0994089585B7806885BF11
:1016300085B7806885BF0895089508950C941C0BA4
:1016400008950E94150B0E941D0B0C941E0B81E047
:1016500008950C94270B0E94E8160E9489070E94A7
:1016600041170C947B03BF92CF92DF92EF92FF92CF
:101670000F931F93CF93DF93CDB7DEB72A970FB6A3
:10168000F894DEBF0FBECDBF0E94CF070E94290B8A
:10169000882309F45EC086E3C82E81E0D82E10E0CE
:1016A00000E0B02E802F0E947E07E82EF601F19018
:1016B0006F01F81609F447C08091CE0181FD0E94A8
:1016C00084079F2D9E2580E0FF24F394292F2F214E
:1016D000B1F18E83BF82EF2081E009F480E088873A
:1016E0000E94F1168160782F9A8789874E815F81E9
:1016F00068858A850E94CA0BF801EA5CFE4F8081EA
:10170000F826F0820E94EC180E94B50A90913501EB
:10171000891781F10E94B50A809335012A960FB688
:10172000F894DEBF0FBECDBFDF91CF911F910F9117
:10173000FF90EF90DF90CF90BF900C9436058F5FB5
:10174000FF0C863019F60F5F1F4F0A30110509F0A4
:10175000A8CF8FEF89838A831B820E94F116816054
:10176000782F9D838C8349815A816B818D810E9462
:10177000CA0BC8CF2A960FB6F894DEBF0FBECDBFF6
:10178000DF91CF911F910F91FF90EF90DF90CF905D
:10179000BF900895CF93DF93CDB7DEB72B970FB6E9
:1017A000F894DEBF0FBECDBF4F83588769877A8715
:1017B0008B871E821D8285E0FE013796DE01119621
:1017C00001900D928A95E1F749815A816B817C8164
:1017D0008D819E812B960FB6F894DEBF0FBECDBFD4
:1017E000DF91CF910C942D11FC01808191810C949B
:1017F0000614CF93C82F882369F18CEF8C0F813AA0
:10180000A0F46C2F80910001909101010E94C515F8
:10181000882329F08C2F0E943B140E94A5148C2F42
:101820000E943414CF910C94A51480E28C0F883060
:1018300048F4C77081E001C0880FCA95EAF70E949A
:101840005C14F0CFC03F30F08C2F0E94E617CF9190
:101850000C94D118CF910895882361F19CEF980FD3
:10186000913A20F40E943B140C94A51490E2980F36
:10187000983050F4877091E001C0990F8A95EAF78B
:10188000892F0E946214F0CF9BE5980F933020F4CB
:1018900090E080E00C94E90A98E5980F973120F4E5
:1018A00090E080E00C94FF0A803F20F00E944E18E8
:1018B0000C94D1180895CF93C82F0E94F90BC93307
:1018C00049F42FEF87EE93E0215080409040E1F7FC
:1018D00000C000008C2FCF910C942C0C882321F099
:1018E0000E945C140C94A5140895882321F00E9492
:1018F00062140C94A5140895BF92CF92DF92EF92D8
:10190000FF920F931F93CF93DF936C01D62FC72FB6
:10191000FC01058102950F70128111110E9479144A
:101920000E945214E82E882391F01123D1F08C2FBD
:10193000807F803421F080E28D0F883090F082E04B
:101940000E94F0140E94521491E0E82EE926BC2E69
:10195000B2949FE0B922EB2DF0E0EE5FFE4D0C94C7
:101960009C20E12CF4CF0C2F0F70C07F11F002955A
:10197000007F1123A9F0002359F080E28D0F8830F9
:1019800010F0D11109C0802F0E945C140E94A51490
:101990008D2F0E94F90B14C0802F0E946C14F6CF7B
:1019A0008D2F0E942C0C002359F080E28D0F88307F
:1019B00010F0D1112CC0802F0E9462140E94A51437
:1019C0002B2D2850330B2430310520F40E94B50A0A
:1019D0000E943605EE2009F482C10E944E1480FD5B
:1019E0007EC1F60112820E9448140E94D112C601E3
:1019F0000E94900E0E944814DF91CF911F910F9189
:101A0000FF90EF90DF90CF90BF900C94F212802F58
:101A10000E947214D3CFFC2FFF70FF2EC07FC03204
:101A200019F0F29480EFF822DD2369F0D13049F10A
:101A3000112391F1002351F1F601858180FFA8CF98
:101A40008F70858323C0112381F0011106C00E948D
:101A50008C148F290E946E0CB3CF0130C1F70E9405
:101A60008C148F290E949214ABCF011106C00E94E2
:101A70009B148F2D0E94750CA3CF013009F4A0CFC9
:101A8000F6CF112329F0063008F09ACF8F2DE2CF40
:101A9000053008F095CFEDCF002359F3D93349F441
:101AA000FFEF27EE33E0F15020403040E1F700C077
:101AB00000008D2F0E942C0C83CF8D2F112329F035
:101AC0000E94E6170E94D1187BCF0E944E18FACFD1
:101AD0008C2F837009F041C0111172CF4D2F4295A8
:101AE00046954770440F440F0D2F0F7010E030E003
:101AF00020E0042E04C0000F111F221F331F0A9480
:101B0000D2F760E070E0CB01D4FF0FC06FE070E06F
:101B100080E090E004C0660F771F881F991F4A95E8
:101B2000D2F76095709580959095C695C695C370CF
:101B3000602B712B822B932BC23049F058F4C130AB
:101B400019F00E9463123CCF0E94511239CF0E94BB
:101B5000751236CF0E944F1233CF8695112311F0A4
:101B60008C2F8170882309F42BCF4D2F42954695F9
:101B70004770440F440F0D2F0F7010E030E020E04D
:101B8000042E04C0000F111F221F331F0A94D2F726
:101B900060E070E0CB01D4FF0FC06FE070E080E048
:101BA00090E004C0660F771F881F991F4A95D2F7EF
:101BB0006095709580959095C695C695C370602B7D
:101BC000712B822B932BC23049F058F4C13019F09D
:101BD0000E944813F5CE0E943613F2CE0E945A138B
:101BE000EFCE0E948B12ECCECF70112329F08C2FF8
:101BF0000E94D1128D2F2ECF8D2F0E94750C8C2F0D
:101C00000E94F212DDCED23F89F160F4D03FC9F0DC
:101C1000D13F29F1112309F442C00111B9CE8C2F13
:101C20008F7121C0D33F39F1D43FA1F7112369F15E
:101C3000CF718C2F0E94D11263E08C2F0E94DB1495
:101C4000BFCE112341F0053008F0BACE8C2F8F7132
:101C50000E941513B5CE063008F0B2CEF7CF8C2F08
:101C60008F71112369F20E94D112AACE8C2F8F712D
:101C70001123C9F3C5CF112329F08C2F8F710E9436
:101C8000BC129ECE0E9497129BCE81E00E94F0145F
:101C9000023008F495CE82E00E94F01491CE002329
:101CA00059F0D93309F005CF8FEF97EEE3E081507B
:101CB0009040E040E1F7FBCE8C2F8F71A1CF4C2FED
:101CC0004F706D2FC6010E948A050E94C71178CE01
:101CD0004C2F4F706D2FC6010E948D0571CEDF9184
:101CE000CF911F910F91FF90EF90DF90CF90BF9019
:101CF00008950F931F93CF93DF93EC01688179814F
:101D00008A810E9410148C010E946C130E944E1252
:101D1000B801CE01DF91CF911F910F910C947C0CF3
:101D2000CF93DF93EC018B819C81892B29F08881F3
:101D3000998189238F3F59F4DF91CF910895CE0186
:101D40000E94790ECE01DF91CF910C946104CE01F7
:101D50000E944E058111F3CF0E945214882361F333
:101D60008A81882349F382E0DF91CF910C94F014AB
:101D70000E9479140E9489140E94A5140E94F819E7
:101D80000C94D1180E9442140C94B80E0E9469144D
:101D90000C94C20EE92FE295EF70E250EE3070F431
:101DA000F0E0EE5EFE4D0C949C20803F19F020F494
:101DB000883E20F481E00895843FE1F380E00895B7
:101DC000883EC0F3813FD1F7F5CF93FB882780F998
:101DD00008950E9406140C94CA0ECF93DF9300D08E
:101DE00000D00F92CDB7DEB70F900F900F900F90ED
:101DF0000F90DF91CF910895CF93DF9300D000D063
:101E000000D0CDB7DEB726960FB6F894DEBF0FBE72
:101E1000CDBFDF91CF9108951F93CF93DF93C091F2
:101E2000410116E0809142018C1304C0DF91CF91F3
:101E30001F910895D0E01C9FF0011D9FF00D11240B
:101E4000ED5BFE4F40815181628173818481958178
:101E50000E94FC0E2196C770E5CF4091730150910E
:101E60007401609175017091760180917701909174
:101E700078010C94FC0E1F93CF93DF93809178012F
:101E8000807FA9F480917501882389F080914101B8
:101E9000C09142016091730170917401A09176012B
:101EA000B0917701D62FD72316E0C81304C0DF9175
:101EB000CF911F91089590E0109711F0DF3F19F432
:101EC00001968770F2CF189F9001199F300D112451
:101ED000F901ED5BFE4F41814713F2CF408146137C
:101EE000EFCF42814111ECCF438154814A1B5B0B00
:101EF0004436510528F7809178018F708061809376
:101F00007801F901E85BFE4F80818F7080618083EA
:101F100083E791E00E94900EDF91CF911F910C9486
:101F20000C0FAF92BF92CF92DF92EF92FF920F937E
:101F30001F93CF93DF93CDB7DEB761970FB6F894B9
:101F4000DEBF0FBECDBF8C0185E0F801DE011D961E
:101F500001900D928A95E1F7F80140815181E2806C
:101F600083E7C82E81E0D82E6091760170917701C9
:101F70006115710509F44FC19091730120917401AD
:101F8000892F82238F3F09F446C1A380B480F0904B
:101F90007501F501E61BF70BFF2009F40AC18091DA
:101FA0007801382F307FE436F10508F0C0C03111D8
:101FB00079C0FE2C251323C0941321C0E1101FC04B
:101FC0008F708061809378010E942D0FC6010E945E
:101FD000900E80917801F80185838F2D61960FB660
:101FE000F894DEBF0FBECDBFDF91CF911F910F914F
:101FF000FF90EF90DF90CF90BF90AF900895AB2807
:1020000029F0842F85238F3F09F021C180E0F82F2C
:10201000F170DF2E80FF3CC0809141012091420190
:1020200036E0821315C04D875E878D859E850E94A0
:102030000614292F22952F702230F0F0243018F545
:102040009F70F1F0F8019581907FD1F4D12C1EC0E2
:1020500090E0389FF001399FF00D1124ED5BFE4FA9
:102060006181651306C06081641303C062816E11D3
:102070000FC001968770D5CF9F7011F0882331F380
:10208000805E883018F3C8010E94900EFD2CA5CF09
:10209000EE2009F4A2CF80917801816080937801CD
:1020A000F12C9BCF251314C0941312C0E11010C063
:1020B000F8018583C8010E94900E86E0F801A3E72D
:1020C000B1E001900D928A95E1F70E942D0F85CF26
:1020D0004D875E878D859E850E94E90E882319F1C4
:1020E000EE2009F180917801803270F02091730127
:1020F0003091740138872F831986BB86AA868C8716
:10210000CE0107960E94900E86E0F801A3E7B1E0A9
:1021100001900D928A95E1F70E943B0F0E942D0FCE
:10212000FF24F3945ACFC8010E94900EF9CF3111C9
:1021300013C07A2DB98AA88A6E2D89890E94ED0E66
:1021400083E791E00E94900E86E0F60111928A9555
:10215000E9F70E942D0FA4CF25130FC094130DC0D3
:10216000E1100BC0F8018583C8010E94900E86E043
:10217000F60111928A95E9F730CF4D875E878D85FC
:102180009E850E94E90E882371F2EE2061F2809113
:102190007801803208F4B8CF209173013091740136
:1021A0003A8329831B82BD82AC828E83CE01019645
:1021B000A9CFE436F10510F5FE2CEE2009F4B3CFDB
:1021C00025130BC0941309C086E0F801A3E7B1E022
:1021D00001900D928A95E1F700CF4D875E878D853E
:1021E0009E850E94E90E81118FCF809178018160D8
:1021F00080937801C8010E94900EEFCE7A2DB98AA3
:10220000A88A6E2D89890E94ED0E86E0F601119252
:102210008A95E9F75ACFEE2009F485CF4D875E877E
:102220008D859E850E94E90EF82E882309F47BCFC8
:1022300086E0F801A3E7B1E001900D928A95E1F7FD
:1022400083E791E00E94F40B0E943B0F3ECF81E0B8
:102250008E25DDCE84E690E008951F93CF93DF9323
:10226000CDB7DEB72C970FB6F894DEBF0FBECDBF4B
:102270004F83588769877A878B879C87CE0107961B
:102280000E94910F882369F08A859B85892B39F0FC
:102290004F815885842F85238F3F09F071C016E048
:1022A0005FC086E0FE013796DE01119601900D9227
:1022B0008A95E1F78A859B85892B89F38F8198859B
:1022C00089238F3F61F32091420130E0C9010196DB
:1022D00087709927409141014817190671F40E94AF
:1022E000C60E109242011092410186E0E3E7F1E050
:1022F000DF011D928A95E9F7D2CF96E0929FD00137
:10230000939FB00D1124AD5BBE4FFE01319601903D
:102310000D929A95E1F7809342010E940C0FBFCF76
:10232000819FC00111248D5B9E4F0E94910F8823D5
:10233000E9F0E09141011E9FF0011124ED5BFE4F99
:102340004081518162817381848195810E94FC0E5C
:102350008091410190E00196877099278093410117
:1023600080914101909142018913DACF2C960FB6EA
:10237000F894DEBF0FBECDBFDF91CF911F910895BE
:1023800069857A858B859C850E94FC0E88CFEF92AB
:10239000FF920F931F93CF93DF938C01892B81F0D2
:1023A000F12CEE24E394E8012196F801849184371E
:1023B00070F4843008F05FC08130B1F08230A1F158
:1023C000DF91CF911F910F91FF90EF900895853786
:1023D00009F44CC008F43DC09CE7980F903780F793
:1023E0008F770E942C0C49C00E5F1F4FFE01849115
:1023F00090E2980F983060F48770FE2D01C0FF0FB7
:102400008A95EAF78F2F0E947C140E94A51402C0BF
:102410000E94F90B8F2D815030F2EFE9FFE03197E8
:10242000F1F700C00000F7CF0E5F1F4FFE0184914F
:1024300090E2980F983050F48770FE2D01C0FF0F86
:102440008A95EAF78F2F0E948214DFCF0E942C0C0E
:10245000E1CF0E5F1F4FFE01C491C150D8F28FE94A
:102460009FE00197F1F700C00000F7CF0E5F1F4F0C
:10247000FE01F490CFCF0E94F90B8E01CBCF0895CF
:102480000C943F120E9440126093A5017093A60124
:102490008093A7019093A8010C94B80E08950C9412
:1024A00042120F931F930091A5011091A601209154
:1024B000A7013091A801602B712B822B932B1F91C8
:1024C0000F910C9442120F931F930091A50110914C
:1024D000A6012091A7013091A801602371238223D6
:1024E00093231F910F910C9442120F931F9300910D
:1024F000A5011091A6012091A7013091A8016027A4
:102500007127822793271F910F910C9442120C94EC
:102510003F120C9487120E9489126093A10170935C
:10252000A2018093A3019093A4010C94B80E60E0E3
:1025300070E0CB010C948B1261157105810591053A
:1025400029F481E0442361F080E00895DC01CB01AF
:1025500004C0B695A795979587954A95D2F781704F
:102560000895482F6091A1017091A2018091A3016B
:102570009091A4010C949C120F931F9341E050E0A2
:1025800060E070E08A019B0104C0000F111F221F50
:10259000331F8A95D2F7C901B8011F910F910C948E
:1025A0008B120F931F9341E050E060E070E004C095
:1025B000440F551F661F771F8A95D2F78091A1019E
:1025C0009091A201A091A301B091A4018A019B0165
:1025D000082B192B2A2B3B2BC901B8011F910F91F6
:1025E0000C948B120F931F9341E050E060E070E079
:1025F00004C0440F551F661F771F8A95D2F7CB0181
:10260000BA0160957095809590950091A101109107
:10261000A2012091A3013091A401602371238223A0
:1026200093231F910F910C948B120F931F9341E0F2
:1026300050E060E070E004C0440F551F661F771F34
:102640008A95D2F78091A1019091A201A091A30156
:10265000B091A4018A019B01082719272A273B274B
:10266000C901B8011F910F910C948B120F931F9306
:102670000091A1011091A2012091A3013091A40128
:10268000602B712B822B932B1F910F910C948B122B
:102690000F931F930091A1011091A2012091A3011A
:1026A0003091A40160237123822393231F910F9102
:1026B0000C948B120F931F930091A1011091A20112
:1026C0002091A3013091A4016027712782279327CD
:1026D0001F910F910C948B120895E92FEE0FE90FC3
:1026E000EE0F8E0F982F977041E001C0440F9A951E
:1026F000EAF786958695869595E0899FF0011124E5
:10270000E758FE4F30E020E070E05191DF01119773
:10271000CB01022E02C0969587950A94E2F781704C
:1027200081958527842385278C932F5F3F4F253004
:10273000310559F70895E92FEE0FE90FEE0F8E0FCF
:10274000982F977086958695869525E0829FF00153
:102750001124E758FE4F50E040E080E0219130E046
:10276000092E02C0369527950A94E2F72170332787
:10277000042E01C0220F0A94EAF7822B4F5F5F4FAD
:102780004530510559F70895BF92CF92DF92EF92ED
:10279000FF920F931F93CF93DF938C01C090A10101
:1027A000D090A201E090A301F090A4018091A50136
:1027B0009091A601A091A701B091A801C82AD92A99
:1027C000EA2AFB2ACFE1D0E0BC2ED701C6010C2EAD
:1027D00004C0B695A795979587950A94D2F780FD82
:1027E0000EC0219788F7B12C8B2DDF91CF911F91CF
:1027F0000F91FF90EF90DF90CF90BF900895B801B8
:102800008C2F0E94AA05019761F3EECFCF93DF933F
:10281000EC010E94C413BE01DF91CF910C94AA0574
:102820001F93CF93DF93EB0190914001992331F0F7
:10283000CB01DF91CF911F910C940614882379F07E
:10284000CB010E94C413182F682FCE010E946D1374
:10285000BE01812FDF91CF911F910C94AA05CB016E
:102860000E949B13182FF4CF682F80910001909144
:1028700001010C944516682F80910001909101018F
:102880000C94501680910001909101010C945B16FC
:102890008091A90185958595859508958091A901D7
:1028A000877008959091A901977081E009F480E004
:1028B00008958091CD0108959091CD01892B809349
:1028C000CD01089580959091CD0198239093CD01ED
:1028D00008951092CD0108959091CC01892B809399
:1028E000CC01089580959091CC0198239093CC01D0
:1028F00008951092CC0108959091CB01892B80937B
:10290000CB01089580959091CB0198239093CB01B2
:1029100008951092CB0108958091AA010895089519
:102920000C948F149091AA01981721F08093AA011A
:102930000C94901408958091AA01882329F0109294
:10294000AA0180E00C9490140895E0910001F091A8
:1029500001018091CD018083E0910001F09101019E
:1029600080819091CC01892B8083E0910001F091CE
:10297000010180819091CB01892B80839091AA01E4
:10298000992381F0E0910001F09101018081892B70
:10299000808380910001909101010E94B115811105
:1029A0000E949B1480910001909101010C94C10A36
:1029B00008950C94D81498E0899F90011124622BFB
:1029C0006093A9010E94D1128091A90185958595F6
:1029D00085950C94D9141092A90180E00C94D91417
:1029E0009091A901809589238093A901282F2770B0
:1029F00071F4282F082E000C330B9217130639F0B0
:102A00008595859585950E94F2120C94EB14089596
:102A100090E080E00E94BE2021E08C3E9E4F09F0B5
:102A200020E0822F089582E090E00C94B62083E0AD
:102A300090E00C94B620682F83E090E00C94C420C2
:102A4000CF9384E090E00E94B620C82F81E290E00E
:102A50000E94B620982F8C2FCF910895CF93C92F25
:102A6000682F84E090E00E94C4206C2F81E290E007
:102A7000CF910C94C420AB01BC018FE090E00C948A
:102A8000D620AB01BC0183E190E00C94D62060E03D
:102A900070E0CB010C94411560E070E0CB010E9426
:102AA0003B150C9447156CEE7EEF90E080E00E94A1
:102AB000E22060E082E090E00E94C42060E083E0D9
:102AC00090E00E94C4201092A5011092A6011092DD
:102AD000A7011092A80160E084E090E00E94C42069
:102AE00060E081E290E00E94C42060E085E090E038
:102AF0000E94C42060E086E090E00E94C4206FEF56
:102B000087E090E00E94C42040E050E0BA0188E0F5
:102B100090E00E94D62060E08DE090E00E94C4200A
:102B200040E050E0BA0188E190E00E94D62060E0E9
:102B300087E190E00E94C42040E050E0BA018CE1BF
:102B400090E00E94D62060E080E290E00E94C420E5
:102B50000C944C150C945315682F8EE090E00C9457
:102B6000C420FC01329680911401882321F08091C9
:102B700017029EE187FF96E080E0915008F40895E7
:102B800021912223D1F38F5FF8CF662301F12091A9
:102B900014012223F1F02091170227FF1AC0462FBB
:102BA0004695469546954E3190F4677021E030E0A9
:102BB00002C0220F331F6A95E2F7840F911DFC01BA
:102BC000828190E02823392381E0232B69F480E07F
:102BD0000895FC01329608962191261721F0E817F6
:102BE000F907D1F7F4CF81E008959C01FC013296FA
:102BF0009FEF80E04191461751F09F3F19F441113A
:102C000001C0982F8F5F8630A9F79F3F09F4089580
:102C1000290F311D97FD3A95F90162830895FC0152
:102C2000329608962191261303C0DF0111971C925A
:102C3000E817F907B9F70895E62FE695E695E695C2
:102C4000EE3168F4E80FF92FF11D677021E030E0F4
:102C500001C0220F6A95EAF78281822B8283089550
:102C6000E62FE695E695E695EE3170F4E80FF92F3C
:102C7000F11D677021E030E001C0220F6A95EAF78C
:102C800020958281282322830895209114012223F4
:102C900029F02091170227FD0C941C160C94F515B1
:102CA00020911401222329F02091170227FD0C9472
:102CB00030160C940F16FC01329680911401882373
:102CC00051F08091170287FF06C08EE1DF011D924F
:102CD0008A95E9F7089586E0F9CF089508950C9450
:102CE0006E160E946F1680911D02843049F1109279
:102CF000CF0188E190E020E40FB6F894A895809386
:102D000060000FBE2093600080E00E9436050E94A4
:102D10006F1683B7817F846083BF83B7816083BF71
:102D20007894889583B78E7F83BF0FB6F894A89563
:102D300080916000886180936000109260000FBEF7
:102D400008950895CF930E946D160E94CF070E94A8
:102D5000A116C0E08C2F0E947E07811105C0CF5FB5
:102D6000CA30C1F7CF91089581E0FCCF08950C944B
:102D7000B6160E94C60E0E94B50A0E9436050C9433
:102D8000B7161F921FB61F9211248F939F93AF9374
:102D9000BF938091CF01811113C080911302909154
:102DA0001402A0911502B09116024196A11DB11D09
:102DB0008093130290931402A0931502B09316020D
:102DC000BF91AF919F918F911F901FBE1F9018953B
:102DD00082E084BD93E095BD9AEF97BD80936E002D
:102DE00008952FB7F8948091130290911402A09146
:102DF0001502B09116022FBF08959C014FB7F894A9
:102E00008091130290911402A0911502B0911602C4
:102E10004FBF821B930B089578941F921FB61F9289
:102E200011248F939F93AF93BF938091130290913E
:102E30001402A0911502B09116020196A11DB11DB8
:102E40008093130290931402A0931502B09316027C
:102E5000BF91AF919F918F911F901FBE1F901895AA
:102E600087E797E7909301088093000888E19AE04C
:102E70000FB6F894A895809360000FBE9093600001
:102E8000FFCF0E940815811102C00E94AA150E945E
:102E900013158093CE010E94201590931802809301
:102EA00017020E941715682F70E090E080E00E94E2
:102EB0004F126091A1017091A2018091A3019091A4
:102EC000A4010C9489128091D60180FF12C06091F8
:102ED000070185E0689FB001112475956795759588
:102EE000679560387105A8F561157105A1F1862F08
:102EF000089581FF09C06091070185E0689FB001D6
:102F0000112475956795EDCF6091070182FD0AC088
:102F10008091D5018823D1F090910601609107013D
:102F2000891728F085E0689FB0011124DACF869FC9
:102F3000B001112485E0869F9001879F300D1124F8
:102F4000692F70E0C9010E948820CBCF65E070E056
:102F5000CECF8FE7089581E008958091D60180FF5C
:102F60000CC06091030170E0759567957595679544
:102F70006115710549F1862F089581FF06C06091A2
:102F8000030170E075956795F3CF6091030182FDB1
:102F90000BC09091D4019923A1F06091020180911E
:102FA0000301961738F0682F70E06038710500F360
:102FB0008FE70895899FC001112470E00E94882046
:102FC000F4CF61E070E0D7CF81E00895803F31F425
:102FD0000E94631781958093DA010895813F19F467
:102FE0000E946317F8CF823F31F40E9463178195E6
:102FF0008093D9010895833F19F40E946317F8CF95
:10300000893F29F40E94AD178093DB0108958A3F20
:1030100021F40E94AD178195F7CF8B3F31F40E94C8
:10302000AD1781958093DC0108958C3F19F40E94BF
:10303000AD17F8CF843F31F48091D801816080933F
:10304000D8010895853F21F48091D8018260F7CF9F
:10305000863F21F48091D8018460F1CF873F21F42D
:103060008091D8018860EBCF883F21F48091D8010E
:103070008061E5CF8D3F31F48091D60181608093EE
:10308000D60108958E3F21F48091D6018260F7CF5A
:103090008F3FB9F78091D6018460F1CF9091D9012B
:1030A000803F59F48091DA0187FF0DC01092DA0158
:1030B00091110BC01092D50108C0813F81F480911D
:1030C000DA0118169CF3992381F08091DB0190912D
:1030D000DC01892B09F064C01092D4010895823F6D
:1030E00049F497FFF0CF1092D9018091DA01811154
:1030F000ECCFE0CF833F19F41916ACF3E4CF209165
:10310000DB01893F29F41216F4F61092DB01DBCFC4
:103110008A3F19F427FFD7CFF8CF2091DC018B3FEE
:1031200029F427FFD0CF1092DC01CDCF8C3F19F4CA
:103130001216CCF3C8CF843F31F48091D8018E7F32
:103140008093D801C0CF853F21F48091D8018D7F35
:10315000F7CF863F21F48091D8018B7FF1CF873F55
:1031600021F48091D801877FEBCF883F21F48091B3
:10317000D8018F7EE5CF8D3F31F48091D6018E7FCF
:103180008093D601A0CF8E3F21F48091D6018D7F10
:10319000F7CF8F3F09F097CF8091D6018B7FF0CF8B
:1031A00008950E94F1169C019091D9018091DA0155
:1031B000982B21F03093D3012093D2019091DB0121
:1031C0008091DC01982B21F03093D1012093D00124
:1031D00087ED91E00C94DB0AEF92FF920F931F931F
:1031E000CF93DF9300D000D000D0CDB7DEB786E01C
:1031F000E7EDF1E0DE01119601900D928A95E1F77D
:10320000E090D901F090DA010091DB011091DC012E
:103210001092D9011092DA011092DB011092DC01B8
:103220008E2D8F2991F08091D2019091D3010E942F
:10323000FD16AC019091D501992309F43FC080910E
:1032400008018417150608F447C0802F812B91F0E0
:103250008091D0019091D1010E94FD16AC01909116
:10326000D401992309F477C08091040184171506CD
:1032700008F47FC08091D9019091DA01892B909157
:10328000DB01892B9091DC01892B11F00E94D11870
:1032900086E0FE013196A7EDB1E001900D928A958E
:1032A000E1F726960FB6F894DEBF0FBECDBFDF91D3
:1032B000CF911F910F91FF90EF90089520910901F8
:1032C0008AE0289F900111242417350708F0BDCF0C
:1032D0009F5F9093D50102C09F3FD1F7EE2059F038
:1032E0000E9463179FEF1E140CF491E0899F802DBC
:1032F00011248093D901FF2059F00E9463179FEF9A
:103300001F140CF491E0899F802D11248093DA0121
:103310003091D901332309F498CF2091DA01222387
:1033200009F493CF45EB3403C0011124992359F0DC
:103330009093D90145EB240390011124332339F0F4
:103340003093DA0182CF81E08093D901F3CF81E01D
:103350008093DA017ACF209105018AE0289F9001BD
:1033600011242417350708F085CF9F5F9093D4016F
:1033700002C09F3FD1F7002359F00E94AD179FEF85
:1033800010160CF491E0899F802D11248093DB01AD
:10339000112359F00E94AD179FEF11160CF491E024
:1033A000899F802D11248093DC013091DB01332330
:1033B00009F460CF2091DC01222309F45BCF45EBB7
:1033C0003403C0011124992359F09093DB0145EB9C
:1033D000240390011124332339F03093DC014ACFC8
:1033E00081E08093DB01F3CF81E08093DC0142CF69
:1033F00086E0E7EDF1E0DF011D928A95E9F7109292
:10340000D5011092D4011092D60108958091FD014A
:10341000089508959C0182E08093E9009FEF8091D8
:10342000E800915085FD06C085ED8A95F1F7000012
:103430009111F5CF8091E80085FF0CC050E040E08D
:1034400066E070E0C9010E94F71B8091E8008E776A
:103450008093E8000895CF93DF93EC0180911401ED
:103460008823B1F18091170287FF32C060E282E0C9
:103470008093E9008FEF9091E800815095FD06C0A0
:1034800095ED9A95F1F700008111F5CF8091E80054
:1034900085FF1BC08091140170E050E040E0811175
:1034A00004C050E040E068E070E0CE010E94F71BED
:1034B0008091E8008E778093E80080E2FE01ADED18
:1034C000B1E001900D928A95E1F7DF91CF910895D7
:1034D00068E081E0CDCF089580911C02811109C080
:1034E0000E94871D0E94E41D8091E2008460809309
:1034F000E200089510921C020895089508950C9416
:10350000B91642E061EC81E00E94031D42E261ECE9
:1035100082E00C94031D80911F02833009F45FC088
:1035200030F48130C1F1823009F49BC008958A30B3
:1035300009F487C08B3009F46DC0893009F04EC0A2
:1035400080911E02813209F049C08091220290913F
:103550002302029708F042C08091E800877F8093A1
:10356000E8008091E80082FF35C09091F3008091DF
:10357000F200029729F48091F1008B7F813021F4D1
:103580008091F1008093FD018091E8008B7780931A
:10359000E8000C94371D80911E02813AF9F4809165
:1035A000E800877F8093E8008091220290912302B7
:1035B000892B61F460E28DED91E070E00E94461C81
:1035C0008091E8008B778093E800089560E090E0B8
:1035D00080E0F3CF80911D028111C3CF08958091C7
:1035E0001E02813AD9F78091220290912302892B01
:1035F000A9F78091E800877F8093E8008091E80038
:1036000080FFFCCF809114018093F1008091E8004D
:103610008E77BDCF80911E02813201F78091220208
:1036200090912302892BD1F68091E800877F8093C7
:10363000E8000E94371D80912002809314010C94B1
:10364000C60E80911E02813249F68091E800877F84
:103650008093E8000E94371D809121028093FE0133
:10366000089580911E02813A09F0B8CF8091E80058
:10367000877F8093E8008091E80080FFFCCF8091F5
:10368000FE01C2CF84B7877F84BF0FB6F894A89598
:1036900080916000886180936000109260000FBE8E
:1036A00080E890E00FB6F8948093610090936100F9
:1036B0000FBE0E94210B0E94871D0E94E41D809175
:1036C000E20084608093E20078940E946D200E9462
:1036D0002B0B8AE091E00E94B00A80911D02853098
:1036E00019F00E94330BF9CF0E94711680911B02D2
:1036F000882399F30E94A216882379F30E94E11B84
:10370000ECCF0C94831B292F33272330310519F17B
:1037100068F42130310509F44AC02230310509F43A
:103720004BC090E080E030E020E028C0213231053D
:1037300079F122323105A9F780E490E027E136E003
:1037400061157105D9F08AE890E02DE835E0613027
:103750007105A1F0E6CF99278130910599F0009786
:1037600041F08230910589F00397D9F6ECE1F5E05C
:1037700002C0ECE3F5E0849190E09F01FA0131830F
:1037800020830895E0E3F5E0F6CFE2E2F5E0F3CF41
:1037900089E090E022E535E06115710579F389E073
:1037A00090E02BE635E06130710541F3BACF82E15C
:1037B00090E02BE735E0E2CF8BE390E020E435E0CA
:1037C000DDCF80E189BD82E189BD09B400FEFDCF76
:1037D0008091D8008F7D8093D8008091E000826036
:1037E0008093E0008091E00081FDFCCF0895AF92CE
:1037F000BF92CF92DF92FF920F931F93CF93DF93ED
:103800006C01EB018A010E94561DF82E811123C024
:103810000115110539F0F80180819181C81BD90B80
:10382000C80ED91EB12CA12C2097A9F08091E800D8
:1038300085FD22C08091E8008E778093E800011515
:103840001105A1F0F80180819181A80EB91EB18205
:10385000A08285E0F82E8F2DDF91CF911F910F91DF
:10386000FF90DF90CF90BF90AF9008950E94561DBB
:103870008823D1F2F82EEFCFF60181916F0180936A
:10388000F1002197FFEFAF1ABF0ACECFFC01809164
:1038900024029091250286179707A0F06115710503
:1038A00029F49091E8009E779093E80090E06115EC
:1038B000710551F4911108C08091E80082FF34C075
:1038C00080E00895BC01F2CF80911D028823C1F1F0
:1038D0008530C1F18091E80083FD30C08091E8001F
:1038E00082FDEACF8091E80080FFE1CF8091F30074
:1038F0002091F200382F6115710519F0283031053B
:1039000058F091E02830310509F090E02091E8006E
:103910002E772093E800CBCF81918093F100615006
:1039200071092F5F3F4FE7CF80911D02882341F03F
:10393000853041F08091E80083FFBECF81E008959B
:1039400082E0089583E00895FC0180912402909123
:10395000250286179707A0F06115710529F480915B
:10396000E8008E778093E80090E06115710551F4CE
:10397000911108C08091E80082FF35C080E0089571
:10398000BC01F2CF80911D028823C9F18530C9F1B5
:103990008091E80083FD31C08091E80082FDEACF8C
:1039A0008091E80080FFE1CF8091F3002091F20048
:1039B000382F6115710519F02830310558F091E064
:1039C0002830310509F090E08091E8008E778093EF
:1039D000E800CBCF84918093F1003196615071095A
:1039E0002F5F3F4FE6CF80911D02882341F0853045
:1039F00041F08091E80083FFBDCF81E0089582E02F
:103A0000089583E00895982F973028F08F70809361
:103A1000E90081E008959093E900242F762F50E08B
:103A2000981731F07091EC002091ED005091F0006A
:103A300021FD02C09F5FE8CF3091EB003E7F3093C5
:103A4000EB003091ED003D7F3093ED003091EB00C5
:103A500031603093EB007093EC002093ED005093B5
:103A6000F0002091EE0027FDE5CF80E008958091E1
:103A70001E0287FF13C08091E80082FF06C080917C
:103A8000E8008B778093E80004C080911D028111CB
:103A9000F2CF089580911D028823D9F38091E80028
:103AA00080FFF8CF8091E8008E77ECCF2091E40082
:103AB0003091E50095E6A9012091EC00822F8170FC
:103AC00020FF06C08091E80080FF06C080E00895D6
:103AD0002091E80022FD1AC080911D02882389F000
:103AE000853089F08091EB0085FD0FC02091E400C6
:103AF0003091E50042175307F9F29150E1F684E066
:103B0000089582E0089583E0089581E008950E9479
:103B1000F51D0E94FD1DE0EEF0E080818160808354
:103B2000E8EDF0E080818F77808319BCA7EDB0E0ED
:103B30008C918E7F8C9380818F7E808310921C026B
:103B400008950F931F93CF93DF930E94F51D0E945A
:103B5000FD1DC8EDD0E088818F77888388818068DB
:103B6000888388818F7D888319BC10921D021092F2
:103B7000190210921B0210921A0200EE10E0F801D6
:103B800080818B7F808388818160888342E060E0D0
:103B900080E00E94031DE1EEF0E080818E7F808353
:103BA000E2EEF0E0808181608083808188608083A4
:103BB000F80180818E7F8083888180618883DF9196
:103BC000CF911F910F910895E8EDF0E080818F7EF5
:103BD0008083E7EDF0E080818160808384E082BFB4
:103BE00081E080931C020C94A11DE8EDF0E080813F
:103BF0008E7F80831092E20008951092DA00109276
:103C0000E10008951F920F920FB60F9211242F9387
:103C10003F934F935F936F937F938F939F93AF9354
:103C2000BF93EF93FF938091E10082FF0BC08091DF
:103C3000E20082FF07C08091E1008B7F8093E1006A
:103C40000E946C208091DA0080FF19C08091D8001A
:103C500080FF15C08091DA008E7F8093DA0080911A
:103C6000D90080FF96C080E189BD82E189BD09B499
:103C700000FEFDCF81E080931D020E946C1A8091AE
:103C8000E10080FF19C08091E20080FF15C08091A3
:103C9000E2008E7F8093E2008091E2008061809359
:103CA000E2008091D80080628093D80019BC85E042
:103CB00080931D020E947E1A8091E10084FF2BC038
:103CC0008091E20084FF27C080E189BD82E189BD47
:103CD00089B5982F917080FFFBCF8091D8008F7DA0
:103CE0008093D8008091E1008F7E8093E1008091E5
:103CF000E2008F7E8093E2008091E20081608093F9
:103D0000E20080911902882309F449C084E080937D
:103D10001D020E947F1A8091E10083FF29C08091DB
:103D2000E20083FF25C08091E100877F8093E1005E
:103D300082E080931D02109219028091E1008E7F33
:103D40008093E1008091E2008E7F8093E200809179
:103D5000E20080618093E20042E060E080E00E9447
:103D6000031D8091F00088608093F0000E947D1A0E
:103D7000FF91EF91BF91AF919F918F917F916F9143
:103D80005F914F913F912F910F900FBE0F901F9019
:103D9000189519BC10921D020E947A1A70CF80915A
:103DA000E30087FD93E090931D02B3CF1F920F9223
:103DB0000FB60F9211242F933F934F935F936F93FE
:103DC0007F938F939F93AF93BF93CF93DF93EF93A3
:103DD000FF93D091E900DF708091EC00C82FC17093
:103DE00080FDC0E81092E9008091F000877F809309
:103DF000F00078940E941A1F1092E9008091F00060
:103E000088608093F000CD2BCF70C093E900FF91C4
:103E1000EF91DF91CF91BF91AF919F918F917F9162
:103E20006F915F914F913F912F910F900FBE0F9027
:103E30001F9018951F93CF93DF93CDB7DEB7AA9746
:103E40000FB6F894DEBF0FBECDBF8EE192E0209199
:103E5000F100FC012193CF01F2E086329F07B9F710
:103E60000E948B1A8091E80083FF1EC180911E0280
:103E700090911F029A3008F017C1E92FF0E0E05E40
:103E8000FE4D0C949C20803899F0823809F00CC1CA
:103E9000809122028F70873008F006C18093E9007C
:103EA0008091EB0085FB882780F91092E90006C01D
:103EB00080911A0290911B02911182609091E8000A
:103EC000977F9093E8008093F1001092F100809129
:103ED000E8008E77E5C0882309F4D3C0823009F06A
:103EE000E3C0809120028111D6C0809122028F70A0
:103EF0002FEF280F263008F0D7C08093E9002091DB
:103F0000EB0020FFC8C0933031F48091EB00806259
:103F10008093EB00C0C09091EB0090619093EB0018
:103F200021E030E001C0220F8A95EAF72093EA00F1
:103F30001092EA008091EB008860EACF8111B4C052
:103F4000109120021F778091E3008078812B80936D
:103F5000E3008091E800877F8093E8000E94371D8E
:103F60008091E80080FFFCCF8091E300806880931F
:103F7000E30082E0111183E080931D0295C0805818
:103F8000823008F091C080912002909121028C3DF6
:103F900023E09207A1F583E08A838AE289834FB701
:103FA000F894DE01139620E03EE051E2E32FF0E0CA
:103FB00050935700E49120FF03C0E295EF703F5FFC
:103FC000EF708E2F90E0EA30C0F0C7968D939D93EE
:103FD0002F5F243159F74FBF8091E800877F80938E
:103FE000E8006AE270E0CE0101960E94461C8091D2
:103FF000E8008B778093E80057C0C096E7CF6091C8
:10400000220270912302AE014F5F5F4F0E94811B1D
:10401000BC01892B09F448C09091E800977F9093E8
:10402000E80089819A810E94A41CE1CF8038E1F5E3
:104030008091E800877F8093E80080911902809347
:10404000F10045CF811130C090912002923060F58F
:104050008091E800877F8093E800909319020E9486
:10406000371D80911902882311F084E005C08091EA
:10407000E30087FDFACF81E080931D020E94811A40
:1040800013C080912002813079F481E0933009F0EF
:1040900080E080931B021092E9008091E800877F06
:1040A0008093E8000E94371D8091E80083FF0AC0DA
:1040B0008091E800877F8093E8008091EB00806228
:1040C0008093EB00AA960FB6F894DEBF0FBECDBF6B
:1040D000DF91CF911F9108950895CF9380911D0294
:1040E0008823A1F0C091E900CF709091EC00892F56
:1040F000817090FD80E8C82B1092E9008091E80063
:1041000083FD0E941A1FCF70C093E900CF910895DC
:1041100097FB072E16F4009407D077FD09D00E9474
:10412000A22007FC05D03EF4909581959F4F0895FD
:10413000709561957F4F0895EE0FFF1F0590F491E4
:10414000E02D0994AA1BBB1B51E107C0AA1FBB1F8E
:10415000A617B70710F0A61BB70B881F991F5A9513
:10416000A9F780959095BC01CD010895F999FECFEE
:1041700092BD81BDF89A992780B50895A8E1B0E075
:1041800042E050E00C94EA20262FF999FECF92BD30
:1041900081BDF89A019700B4021639F01FBA20BD0C
:1041A0000FB6F894FA9AF99A0FBE08950396272F3E
:1041B0000E94C5200E94C420252F0E94C520242FC4
:1041C0000C94C5200196272F0E94C5200C94C42072
:1041D000DC01CB01FC01F999FECF06C0F2BDE1BDC7
:1041E000F89A319600B40D9241505040B8F70895B6
:1041F000F894FFCFAF03B603C403E103BE03F20399
:10420000F7030D04B30CB30C0B0D0B0DE00C5D0D9F
:10421000E00CE00C680DF40D030E030E5F0EE00CD5
:10422000E00C680ED50ED50EDE0EDE0EE00EDE0EB4
:10423000DE0EDE0ED50ED50EE50EDE0EDE0EE50E22
:10424000431F6B1F54206B1F54209E1FBF1F542001
:0442500016202220F2
:10425400AB012808641E140A321E061A2B1A0A1A05
:10426400091A6B1A01F4F5F6F73133946697C634DC
:0642740000000000000044
:00000001FF
