:100000000C94FA020C9441030C9441030C94F903F0
:100010000C9441030C9441030C9441030C94410350
:100020000C9441030C9441030C94AB200C947F215D
:100030000C946A190C9441030C9441030C944103F1
:100040000C9441030C9441030C9441030C94410320
:100050000C9441030C94B5190C9441030C94410386
:100060000C9441030C9441030C9441030C94410300
:100070000C9441030C9441030C9441030C944103F0
:100080000C9441030C9441030C9441030C944103E0
:100090000C9441030C9441030C9441030C944103D0
:1000A0000C9441030C9441030C9441030102E2605F
:1000B0000103E2000102E2600103E20035001E00DC
:1000C0001F0020002100220000002B0014001A0055
:1000D0000800150017000000E000040016000700EB
:1000E00009000A000000E1001D001B0006001900C5
:1000F00005002F002D5D2900E200E3002F5D2B5D40
:100100002C004C00270026002500240023000000BE
:100110002A00130012000C0018001C00000034001C
:1001200033000F000E000D000B0000002800380007
:10013000370036001000110030004F00520051000F
:100140005000305D2C5D2C0035001E001F0020008B
:100150002100220000002B0014001A0009001300E7
:100160000A000000E0000400150016001700070058
:100170000000E1001D001B000600190005002F0013
:100180002D5D2900E200E3002F5D2B5D2C004C006B
:100190002700260025002400230000002A00330049
:1001A0001C0018000F000D000000340012000C00AD
:1001B000080011000B00000028003800370036004E
:1001C00010000E0030004F00520051005000305D12
:1001D0002C5D2C0035001E001F0020002100220095
:1001E00000002B0034003600370013001C00000014
:1001F000E00004001200080018000C000000E100FC
:10020000330014000D000E001B002F002D5D29008F
:10021000E200E3002F5D2B5D2C002A002700260062
:1002200025002400230000004C000F0015000600EC
:100230000A000900000038001600110017000B002A
:100240000700000028001D0019001A00100005001A
:1002500030004F00520051005000305D2C5D2C00EA
:1002600035021E021F022002210222020000350276
:100270001E021F02200221022202000001003A0099
:100280003B003C003D003E000000390040004100C2
:100290004200430044002602010001000100010069
:1002A00001000100010001002702260225022402AC
:1002B0002302000001002702260225022402230255
:1002C0000000310230022F022E022D023F000000FA
:1002D00001004D004A000100010045002702AE0068
:1002E000A900AA00AB0001000100010035001E00BA
:1002F0001F00200021002200000035001E001F000A
:10030000200021002200000001003A003B003C00D8
:100310003D003E0000003900400041004200430023
:100320004400010001000100010001000100010082
:1003300001002A00270026002500240023000000D9
:100340004C00270026002500240023000000310077
:1003500030002F002E002D003F00000001004B0058
:100360004E000100010045000100AE00A900AA00F6
:10037000AB000100010001003A003B003C003D00E1
:100380003E003F0000000100005C315D0100010003
:10039000010000000100010001001D5C1E5C135CF7
:1003A0000000010001000100010001000100010046
:1003B00001000100010001000100010001004500F1
:1003C0004400430042004100400000004C00010096
:1003D00001000100010001000000010001002A5D90
:1003E000295D285D0A5C0000C95CC75CC55CC25C15
:1003F000010001000100CA5CC85CC65CC35C01006E
:100400000100010000000000000000002A2B28006D
:1004100000000000000000000000000000000029B3
:10042000000000002C1E3420212224342627252EF3
:10043000362D3738271E1F2021222324252633332B
:10044000362E37381F0405060708090A0B0C0D0E57
:100450000F101112131415161718191A1B1C1D2F23
:100460003130232D350405060708090A0B0C0D0E43
:100470000F101112131415161718191A1B1C1D2F03
:100480003130354C0000000000000000000000008A
:1004900000000000000000007E0F00D4FFFFFFC737
:1004A00000000078040330000000160348006500D7
:1004B0006C00690078002000420065007400610053
:1004C00000001403590075007300680061006B00A0
:1004D0006F0062006F0000000403090409023B0082
:1004E000020100A0320904000001030101000921FA
:1004F000110100012240000705810308000A0904D8
:1005000001000103000000092111010001228A00FD
:100510000705820320000A1201100100000008668E
:1005200032000001000102030105010902A1018559
:10053000020901A1000509190129051500250195E8
:1005400005750181029501750381010501093009D5
:10055000311581257F950275088106093815812599
:100560007F950175088106050C0A38021581257FE3
:10057000950175088106C0C005010906A101850520
:10058000050719E029E71500250195087501810285
:100590000507190029EF1500250195F07501810265
:1005A0000508190129059505750191029501750345
:1005B0009101C005010906A101050719E029E71508
:1005C00000250195087501810295017508810105D5
:1005D00007190029FF150026FF0095067508810000
:1005E0000508190129059505750191029501750305
:1005F0009101C00011241FBECFEFDAE0DEBFCDBFF6
:1006000004B603FE27C08091580290915902A09130
:100610005A02B0915B028730904BA740B04BD1F4A7
:10062000109258021092590210925A0210925B02D4
:1006300014BE84B7877F84BF0FB6F894A8958091C5
:100640006000886180936000109260000FBEE0E05F
:10065000F8E3099511E0A0E0B1E0E0EBF7E402C0B7
:1006600005900D92A234B107D9F722E0A2E4B1E0DF
:1006700001C01D92A835B207E1F70E94EB1D0C9452
:10068000AE230C9400008EE14A9B02C08150E1F73A
:100690004A9BFECF08955A9880E28A95F1F75A9ABC
:1006A0000895FC013BE03A95F1F720E090E080E00E
:1006B00031E040E14A95F1F7880F4A9B02C0816022
:1006C000232742E04A95F1F7000040E14A95F1F70F
:1006D0009F5F6913EECF90E19A95F1F799B132E0FF
:1006E0003A95F1F7000040E14A95F1F792FB99271E
:1006F00090F992272081920F90830895EF92FF92B4
:100700000F931F93CF93DF930F92CDB7DEB719826C
:100710008C017C01E60EF11C0E151F0561F481E0D1
:100720009981911180E00F90DF91CF911F910F91EE
:10073000FF90EF9008950E94430368E0CE01019678
:100740000E945103F80181938F01E6CF90934401F9
:100750008093430160934201529A5A9A089590936C
:100760004401809343016093420152985A9AEA9A55
:10077000E9E6F0E080818F7C808308956150770BFB
:1007800091E001C0990F6A95EAF720E031E09111FC
:1007900008C0222391F05A9A80E28A95F1F75A987C
:1007A0000895492F482339F05A9A232740E24A9561
:1007B000F1F79695ECCF5A98F9CF5A98EDCFFF9272
:1007C0000F931F93CF93DF93EC018C01060F111D44
:1007D000C017D10731F4DF91CF911F910F91FF9096
:1007E0000895F9900E944B0368E08F2D0E94BE038C
:1007F000EFCF1F920F920FB60F9211240F931F93FA
:100800002F933F934F935F936F937F938F939F9318
:10081000AF93BF93EF93FF93CF93DF930F92CDB737
:10082000DEB719820E94430367E0CE0101960E9461
:100830005103082F069506950695982F9295957069
:10084000202F2570920F292F2370969596958770EB
:10085000920F891344C08981811141C08091420166
:100860008017E8F120E12A95F1F75A9A529A82E02E
:100870008A95F1F700C0A8E00A9FC00111240091F9
:10088000430110914401080F191F5A98F80165811E
:10089000662321F0868197810E94DF030E944B032B
:1008A000F0E1FA95F1F75A9852985A9A20E12A9570
:1008B000F1F7D80112966C911297662331F11396D5
:1008C0008D919C910E947E03D801ED91FC9188232B
:1008D00011F088E001C082E080830E9443030F9002
:1008E000DF91CF91FF91EF91BF91AF919F918F9148
:1008F0007F916F915F914F913F912F911F910F9138
:100900000F900FBE0F901F901895ED91FC91E1CFC5
:100910000F931F93CF93DF9320914201281719065D
:100920000CF471C08C0193E0000F111F9A95E1F750
:10093000C0914301D0914401C00FD11FF894529A45
:100940005A9825E02A95F1F70000982F9695957012
:100950008570980F892F837096959695980F092B1F
:100960000E944B0300C067E0802F0E94BE0380E11D
:100970008A95F1F752985A9A4A9B17C087E090E0FF
:100980004A9915C06D81662321F18E819F810E9455
:100990007E0381111EC0529A5A9AE881F98182E041
:1009A0008083789482E090E00DC000C0E5CF01978D
:1009B00071F4529A5A9AE881F98181E0808378949F
:1009C00081E090E0DF91CF911F910F91089500C0D9
:1009D000D7CF0E94430320E22A95F1F75A98529A02
:1009E00080E18A95F1F76A81662321F08B819C81F1
:1009F0000E94DF030E944B03E881F9811082789402
:100A000090E080E0DFCF84E090E0DCCFCF93DF9315
:100A1000A8E3B1E04DE351E0C1E0D0E08D91E82FD3
:100A2000E295EF70F0E061A18F709E0101C0220F8E
:100A30008A95EAF7922F9095962391A382A1822B13
:100A400082A34A175B0751F7DF91CF91089508956C
:100A50000C9427050E94AF060E940605A1E3B1E0B1
:100A600061E070E08D91E82FE295EF70F0E041A138
:100A70008F709B0101C0220F8A95EAF7922F909503
:100A8000942391A382A1822B82A381E0A833B8078B
:100A900049F7209A559A289A5D9AEFE4F1E0A5E487
:100AA000B1E011921D9281E0E935F807D1F70C947D
:100AB000DC089F92AF92BF92CF92DF92EF92FF92AB
:100AC0000F931F93CF93DF9380910101C5E0D0E096
:100AD000882311F0D0E0C0E088E3C82E81E0D82E52
:100AE000AE014B5B5E4F7A018A01AA24A394B12C1C
:100AF00025E0922EF60181916F01E82FE295EF70CB
:100B0000F0E021A18F70A50102C0440F551F8A9506
:100B1000E2F7CA01922F982B91A392A18095892385
:100B200082A350EA5A95F1F7E1E3F1E020E050E0CA
:100B300040E03191A32FA295AF70B0E090968C91D8
:100B400090E03F7002C0959587953A95E2F780FD59
:100B500039C0C501042E01C0880F0A94EAF7282B7A
:100B60004F5F5F4F4730510521F7F80180818217B1
:100B700019F02083909200010E9406050F5F1F4F1D
:100B8000FDE3CF16F1E0DF0609F0B4CF809100015C
:100B9000882359F08150809300018823A9F08FE9C0
:100BA0009FE00197F1F700C0000081E0DF91CF9155
:100BB0001F910F91FF90EF90DF90CF90BF90AF907B
:100BC0009F90089580E0CBCFC15BDE4FF7019191FC
:100BD0007F0199938F5F8530C9F7E7CFCF93DF937C
:100BE00020910101D0E0C0E0222311F0C5E0D0E067
:100BF0000E94CA06009731F0029709F4289881E014
:100C000090E00BC0289ADE01A15BBE4F25E0E5E62F
:100C1000F1E001900D922A95E1F7DF91CF910895CF
:100C20000E94590580910101E5E0F0E0882311F070
:100C3000F0E0E0E0E15BFE4F90E080E020E0DC01EE
:100C4000AB59BE4F4C913191431321E03C93019637
:100C500085309105A1F780915D01820F80935D0140
:100C60000895CF93DF930E949306882309F440C030
:100C70000E94590580910101C5E0D0E0882311F060
:100C8000D0E0C0E0C15BDE4F45E050E0BE0180E651
:100C900091E00E945F2325E0FE01A0E6B1E0019013
:100CA0000D922A95E1F70E94EE05892BE9F05D98F7
:100CB000809159018F5F80935901863078F080913F
:100CC0000101F0E0E0E0882311F0E5E0F0E0E15B15
:100CD000FE4F108211821282138214820E94E40855
:100CE00081E0DF91CF9108955D9A10925901F6CF7E
:100CF0000E94100680910101B0E0A0E0882311F06D
:100D0000A5E0B0E0A15BBE4F85E0E0E6F1E0019038
:100D10000D928A95E1F7E2CFE82FF0E0E15BFE4F1C
:100D200080810895089580915A01811111C08091A8
:100D3000D80080618093D8008AE18A95F1F700C0DD
:100D40009091D900892F817090FF82E080935A01A1
:100D500081E090915A01913009F080E008950E945D
:100D60009306809301010E949306882321F00E943C
:100D7000BE06789408950E94C406FBCF63E070E03D
:100D800082E091E00C94A60363E070E082E091E0E1
:100D90000C94AF030F931F93CF93DF938C0190912B
:100DA0001B0180911A01D0E0C0E0981759F082E051
:100DB00090E00E948804EC01892B21F480911A01B3
:100DC00080931B0180915B0190915C01082B192B92
:100DD00090E080E0012B11F081E090E00E94880417
:100DE000892B71F480915D0180931A0110925C014E
:100DF00010925B01CE01DF91CF911F910F91089569
:100E000081E090E090935C0180935B01F3CF0E94BE
:100E1000D30D80936A010C94D4070C94CC0DCF931E
:100E2000DF93EC010E94C417BE0190E080E0DF91E7
:100E3000CF910C94FB14CF93DF93D62FC42F0E9435
:100E40005D15882351F08D2F0E945D15882329F0B0
:100E50008C2FDF91CF910C947D158C2FDF91CF914A
:100E60000C949E15CF93FB018B322DE5920709F46C
:100E700045C0C8F488322DE5920789F138F4833CE7
:100E80009C45A1F1C1E08C2FCF91089589322DE5C9
:100E9000920771F18A329D45A9F7C281CC2399F35B
:100EA00084E090E021C08D322DE5920709F456C010
:100EB00008F442C08F322DE5920709F459C08033FF
:100EC0009D4501F7C281CC2309F46CC08091490291
:100ED00082FBCC27C0F982FD62C080E954C0C28188
:100EE00081E090E0CC2379F20E940F07C0E0CBCFE5
:100EF000C28182E090E0CC2331F2F6CFC281CC23D4
:100F000081F080916B01811103C081E080936B01BE
:100F100083E00E947D1545E064E083E00E941B07AA
:100F2000E5CF10926B0183E00E949E1545E064E0DE
:100F300083E00E941B07A7CFC281CC2349F0809198
:100F40006B01811103C081E080936B0184E0E1CFEC
:100F500084E00E949E1510926B01E8CFC28185E06B
:100F6000CC2319F00E947D15C1CF0E949E158BCF16
:100F7000C281CC2381F08091490282FBCC27C0F949
:100F800082FD04C081E90E94A50E7DCF84EB90E034
:100F90000E94D908ABCF81E90E94D80E74CF8CEAA9
:100FA00090E0F6CF80E9F8CF089581E008950C94A1
:100FB000320708950C94D9071F93CF93DF9300D085
:100FC00000D00F92CDB7DEB749835A836B8330913F
:100FD000810189819A8131111DC06623B9F02223D4
:100FE000A9F00E946D16182F682F89819A810E949E
:100FF000191669817A81812F0F900F900F900F90B1
:101000000F90DF91CF911F910C9445090E944516D6
:10101000182FEFCF0E946D1669817A81EDCFFC0108
:10102000262F408151816281738184810C94DC0779
:10103000CF93DF93EC0160E00E940F08BE01DF91C7
:10104000CF910C94DA07FF920F931F93CF93DF9306
:10105000E82FF0E0EC5FFB4FF490C82FC695C695E3
:10106000C695D0E0FE01EC56FB4F0491877010E06E
:10107000082E02C0159507950A94E2F70170112712
:10108000CC57DB4FFE01C491D0E002C0D595C79587
:101090008A95E2F7C170DD270115110519F081EE7F
:1010A0000E94A50E209719F086EE0E94A50E8F2DA6
:1010B0000E94070FCD2B19F086EE0E94D80E012B4F
:1010C00041F081EEDF91CF911F910F91FF900C9431
:1010D000D80EDF91CF911F910F91FF900895EF925D
:1010E000FF920F931F93CF93DF938C01F62E8AE02C
:1010F000E82EF8018491882309F454C0813009F066
:101100004DC0E8012196FE018491813091F4219631
:10111000FE0184910E94070F8E010F5F1F4F8F2DDC
:10112000815038F3EFE9FFE03197F1F700C000009C
:10113000F7CF823039F4E8012296FE0184910E94B3
:10114000A50EEACF833039F4E8012296FE0184919E
:101150000E94D80EE1CF8430F9F6E8012296FE0114
:10116000249190E080E0FE0131962053330B2A3029
:10117000310548F0019780F2EFE9FFE03197F1F790
:1011800000C00000F7CFE89EA001E99E500D112499
:10119000C901840F951F2491EF01E5CF0E94230818
:1011A000E801BACFDF91CF911F910F91FF90EF909F
:1011B000089560E00C946F080E94B117811102C07D
:1011C0000E9453180C9407070C94280508950C945A
:1011D000E60881E008950C94E908CF93C82F0E9497
:1011E000E7088C2FCF910C94EB0808950E947211A0
:1011F0000E94F5082FEF84E39CE02150804090404E
:10120000E1F700C000000C94D9190F931F93CF93FE
:10121000DF93EC0161E00E940F088C01BE010E9487
:10122000D707882329F1BE01C8010E94BD0B88237E
:10123000F9F0BE01C8010E940F0C8823C9F0BE015D
:10124000C8010E94320D882399F08A81882339F0E1
:1012500001158CE5180751F00E3D1C4579F0CE01C3
:10126000DF91CF911F910F910C94D5070E94F60842
:1012700080E0DF91CF911F910F9108950E94531844
:10128000F7CF90E080E008950895972F70E027E071
:10129000929F600D711D1124FB0196E4899FE00D62
:1012A000F11D1124EE0FFF1FE454FF4F859194911F
:1012B0000895FC01EE0FFF1FEC55FB4F85919491B3
:1012C0000895CF93DF930E9445090E94580AEC01CC
:1012D000811521E59207E8F5811530E5930708F0BF
:1012E0009BC08F3F910509F0F0F4803F910508F015
:1012F00085C0803E910580F4803C910508F080C057
:101300008130910561F0009751F00497813A910581
:1013100030F0D0E0C0E003C0883E9105D0F7CE01A8
:10132000DF91CF9108958115904338F4C11580E283
:10133000D807A8F3CE019F7065C0C11590E4D90706
:1013400008F067C0CE019927D3FF60C0EC01D86CCC
:10135000E6CF811525E5920700F5811534E5930761
:1013600008F08EC0811543E5940708F076C0C115DA
:1013700082E5D80708F46CC0CE018370992721E07C
:1013800030E002C0220F331F8A95E2F7C695C6955A
:1013900080E2C89FE001112457C0C11599E5D90723
:1013A000A8F4C11528E5D20708F06FC0C11536E5CD
:1013B000D30708F0AECF8C2F0E94EF0AC82FD0E0E1
:1013C000DC2FCC27CC27DF71D062A9CFC1154AE52D
:1013D000D40708F45FC0CE0190568115904208F002
:1013E00098CF8D2F8F710E94EF0A90E0982F882759
:1013F00088279F719C012C2BE901E6CFD0658FCF08
:10140000805C91090E945909EC0189CFEC01D06CF4
:1014100086CFDF70D06A83CFE4E096958795EA9512
:10142000E1F783702C2F26952695237040E2249FA8
:1014300090011124382B8C2F8370C1E0D0E002C0C2
:10144000CC0FDD1F8A95E2F7C22BD32BDC6867CF68
:10145000DC2FCC27C16FD06A62CF8370992721E03F
:1014600030E002C0220F331F8A95E2F7C695C69579
:1014700090E2C99FE0011124C22BD32BDA684FCF31
:10148000D82FCC27C46FD06A4ACFDC2FCC27C06FAF
:10149000D06A45CF8C2F8F700E94EF0A34E0D6952A
:1014A000C7953A95E1F7CF709C2FEC01D06937CF03
:1014B00082389105B1F1B0F48133910509F475C01A
:1014C00048F48932910509F469C08A32910509F41A
:1014D00073C008958533910509F459C08933910586
:1014E00001F10895833E9105A9F138F4803E9105FC
:1014F000F9F0823E910549F10895863E9105A9F1E2
:10150000873E9105C9F1843E910519F520914A0263
:1015100021FF1FC08091490284FD14C087EE90E036
:101520000895209149022370A1F080EE90E0089583
:101530002091490220FD47C030914A0230FF09C086
:1015400024FF44C090E080E004C02091490222FDC5
:10155000F7CF08952091490222FD3BC030914A0205
:1015600030FDE3CF24FFF5CFEDCF2091490223FFDB
:10157000F0CF24FDE7CFD2CF2091490223FD2CC02C
:1015800030914A0231FFEECF84EE90E00895209131
:10159000490225FFDECF89E290E0089520914902BB
:1015A00025FFD7CF85E390E008952091490226FFDB
:1015B000D0CF8AE290E008952091490226FFC9CF5A
:1015C00081E390E0089589E390E0089583EE90E050
:1015D000089582EE90E0089586EE90E0089590914F
:1015E000490292FF06C0282F28712830F9F4877F1E
:1015F000846093FF06C0282F28712831F1F4877E7C
:10160000846120914A0220FF06C0382F387138309B
:10161000D9F4877F816021FF06C0282F28712831E7
:10162000D1F4877E816194FD877E0895282F2471EF
:101630002430F9F68B7F8860DCCF282F2471243189
:1016400001F78B7E8861DDCF382F3171313019F78A
:101650008E7F8860E0CF282F2171213121F78E7E87
:101660008861E1CFAF92BF92CF92DF92EF92FF926B
:101670000F931F93CF93DF937C015B01C42FD22F75
:10168000FC0182818823F9F040936E010E949A192F
:1016900090936D0180936C0180E28C0F883008F08C
:1016A00061C0C77081E001C0880FCA95EAF7DF9179
:1016B000CF911F910F91FF90EF90DF90CF90BF904F
:1016C000AF900C941A0F10916E01141340C08091CA
:1016D0006C0190916D010E94A6196C01B701C501C2
:1016E0000E94D613C816D90690F5C0E2CD0F1D177B
:1016F000B9F080E2810F883040F4177081E001C0BA
:10170000880F1A95EAF70E94210FC83048F481E04B
:101710009D2F977001C0880F9A95EAF70E941A0FC3
:10172000802F0E94070FC830E8F4D77081E001C015
:10173000880FDA95EAF7DF91CF911F910F91FF9013
:10174000EF90DF90CF90BF90AF900C94210F80E28C
:101750008C0F883038F4C77081E001C0880FCA95BB
:10176000EAF7E9CFDF91CF911F910F91FF90EF90B2
:10177000DF90CF90BF90AF9008950F939C01CB0165
:10178000233F4CE5340759F1A8F4283DFCE53F0719
:1017900001F1293D4CE53407D1F1273D3C4591F459
:1017A00006E221EE41EE67ED7CE50E94320B80E01F
:1017B0000F910895253FFCE53F07E9F0B0F0263F83
:1017C0003C45F9F0FC018281882339F110926E01C9
:1017D000EFCF07E225EE45EE68ED7CE5E6CF06E2C9
:1017E00021EE40EE63EF7CE5E0CF07E225EE44EE2C
:1017F00064EF7CE5DACF06E221EE42EE65EF7CE5B0
:10180000D4CF07E225EE46EE66EF7CE5CECF08E2C8
:1018100021E045EE69ED7CE5C8CF81E0C9CFCF93EB
:10182000DF93EC01FB018281882309F419C1C230E6
:10183000FCE5DF07C0F1C6319CE5D90730F09E0119
:101840002A5F3C452930310570F50E94C9179093F5
:101850004A0280934902C031ECE5DE0709F4CFC0AB
:1018600008F05BC0C8308CE5D80709F4B6C088F52D
:10187000C430ECE5DE0709F4A8C0C0F4C2308CE542
:10188000D80709F49CC0809149028260C330DC45CE
:1018900009F498C08091490290914A020E94D7179A
:1018A0000E94721180E0DF91CF91089580914902EA
:1018B0008061C630ECE5DE0709F484C080914902FE
:1018C0008860C730DC4508F47DC0809149028062A1
:1018D00079C0CC308CE5D80709F489C070F48091C8
:1018E00049028C60CA30ECE5DE0709F46BC008F4ED
:1018F00078C0809149028E7F65C0CE308CE5D807D4
:1019000009F479C0809149028B7FCF30DC4508F41F
:1019100059C0809149028F7E55C0CB3FECE5DE0770
:1019200009F457C030F5C3318CE5D80709F46FC00E
:1019300078F4C131ECE5DE0709F465C0C231DC455D
:1019400009F0A8CF0E947211809149028F773AC0A6
:10195000C5318CE5D80709F462C008F476C08091DF
:101960004A028160CA3FDC4509F094CF80934A0265
:1019700091CFCF3FFCE5DF0709F44DC088F480919B
:101980004A028D7FCD3F9CE5D90781F380914A02C1
:101990008E7FCE3FDC4550F380914A028360E6CFD4
:1019A000C130FDE5DF0709F459C008F444C080E008
:1019B000C230DD4509F06ECF0E9455186BCF809183
:1019C000490281608093490265CF80914902846019
:1019D000F9CF80914A028260C9CF80914902806428
:1019E000F1CF0E947211809149028068EBCF809103
:1019F00049028D7FE7CF80914902877FE3CF8091B5
:101A000049028F7DDFCF809149028F7BDBCF8091B0
:101A10004902837FD7CF80914A028C7FA7CF8091E4
:101A2000490282FB992790F921E0922790FB82F9E5
:101A300090FB83F9C7CF80914A02982F90959170BF
:101A40008E7F892B90FB81F991CF0E94721190912A
:101A50004902892F97FB87F98058B4CF81E0ACCF3A
:101A600081E021CFCF93DF93EB0186319C4511F5C7
:101A70000E9402179A81992399F08A7A91E009F4D9
:101A800090E090936F01811109C089E20E94DD16F8
:101A90000E944E1780E0DF91CF91089585E3F6CF45
:101AA00080916F01811104C089E20E94E416F0CF99
:101AB00085E3FBCF81E0EFCF9093750180937401B4
:101AC0000895E0917401F0917501309721F0019033
:101AD000F081E02D099480E00895E0917401F09187
:101AE0007501309799F020913001222359F020910F
:101AF000490227FF07C0DC012C9111962C93119706
:101B000025E02C930280F381E02D09940895E09163
:101B10007401F0917501309739F022E0DC012C93CB
:101B20000480F581E02D099408952091720130918F
:101B300073012817390771F0909373018093720134
:101B4000E0917401F0917501309721F00680F781E2
:101B5000E02D0994089520917001309171012817AA
:101B6000390771F09093710180937001E0917401D5
:101B7000F0917501309721F00084F185E02D0994F2
:101B8000089585B7806885BF85B7806885BF08954B
:101B9000089508950C94C80D08950E94C10D0E94E7
:101BA000C90D0C94CA0D81E008950C94D30D0E94C8
:101BB00091190E942A050E94EA190C940D07BF9200
:101BC000CF92DF92EF92FF920F931F93CF93DF9309
:101BD000CDB7DEB72A970FB6F894DEBF0FBECDBFE4
:101BE0000E9431060E94D50D882309F45EC087E764
:101BF000C82E81E0D82E10E000E0B02E802F0E9489
:101C00008C06E82EF601F1906F01F81609F447C032
:101C10008091140281FD0E9492069F2D9E2580E0F6
:101C2000FF24F394292F2F21B1F18E83BF82EF205F
:101C300081E009F480E088870E949A198160782FFA
:101C40009A8789874E815F8168858A850E94760E92
:101C5000F801E958FE4F8081F826F0820E94951B1A
:101C60000E94610D90917601891781F10E94610DAA
:101C7000809376012A960FB6F894DEBF0FBECDBFD3
:101C8000DF91CF911F910F91FF90EF90DF90CF9058
:101C9000BF900C94ED088F5FFF0C873019F60F5F33
:101CA0001F4F0A30110509F0A8CF8FEF89838A836F
:101CB0001B820E949A198160782F9D838C834981B1
:101CC0005A816B818D810E94760EC8CF2A960FB6FD
:101CD000F894DEBF0FBECDBFDF91CF911F910F9162
:101CE000FF90EF90DF90CF90BF900895CF93DF9358
:101CF000CDB7DEB72B970FB6F894DEBF0FBECDBFC2
:101D00004F83588769877A878B871E821D8285E07B
:101D1000FE013796DE01119601900D928A95E1F74A
:101D200049815A816B817C818D819E812B960FB672
:101D3000F894DEBF0FBECDBFDF91CF910C94D913C5
:101D4000FC01808191810C94AF16CF93C82F88231A
:101D500069F18CEF8C0F813AA0F46C2F80911C01FB
:101D600090911D010E946E18882329F08C2F0E94EB
:101D7000E4160E944E178C2F0E94DD16CF910C9412
:101D80004E1780E28C0F883048F4C77081E001C0A4
:101D9000880FCA95EAF70E940517F0CFC03F30F0D0
:101DA0008C2F0E948F1ACF910C947A1BCF9108959B
:101DB000882361F19CEF980F913A20F40E94E41679
:101DC0000C944E1790E2980F983050F4877091E081
:101DD00001C0990F8A95EAF7892F0E940B17F0CF5F
:101DE0009BE5980F933020F490E080E00C94950DE3
:101DF00098E5980F973120F490E080E00C94AB0DBB
:101E0000803F20F00E94F71A0C947A1B0895CF931C
:101E1000C82F0E94A50EC93349F42FEF87EE93E037
:101E2000215080409040E1F700C000008C2FCF91FE
:101E30000C94D80E882321F00E9405170C944E179D
:101E40000895882321F00E940B170C944E170895D3
:101E5000BF92CF92DF92EF92FF920F931F93CF9397
:101E6000DF936C01D62FC72FFC01058102950F70FF
:101E7000128111110E9422170E94FB16E82E88235E
:101E800091F01123D1F08C2F807F803421F080E2FB
:101E90008D0F883090F082E00E9499170E94FB1607
:101EA00091E0E82EE926BC2EB2949FE0B922EB2DFA
:101EB000F0E0E055FC4D0C944523E12CF4CF0C2FC1
:101EC0000F70C07F11F00295007F1123A9F000234D
:101ED00059F080E28D0F883010F0D11109C0802FA9
:101EE0000E9405170E944E178D2F0E94A50E14C048
:101EF000802F0E941517F6CF8D2F0E94D80E002339
:101F000059F080E28D0F883010F0D1112CC0802F55
:101F10000E940B170E944E172B2D2850330B243094
:101F2000310520F40E94610D0E94ED08EE2009F4B5
:101F300082C10E94F71680FD7EC1F60112820E94C6
:101F4000F1160E947D15C6010E943C110E94F116F7
:101F5000DF91CF911F910F91FF90EF90DF90CF9085
:101F6000BF900C949E15802F0E941B17D3CFFC2F7F
:101F7000FF70FF2EC07FC03219F0F29480EFF8227C
:101F8000DD2369F0D13049F1112391F1002351F1A2
:101F9000F601858180FFA8CF8F70858323C0112330
:101FA00081F0011106C00E9435178F290E941A0F77
:101FB000B3CF0130C1F70E9435178F290E943B171C
:101FC000ABCF011106C00E9444178F2D0E94210F34
:101FD000A3CF013009F4A0CFF6CF112329F00630AA
:101FE00008F09ACF8F2DE2CF053008F095CFEDCFD6
:101FF000002359F3D93349F4FFEF27EE33E0F150D2
:1020000020403040E1F700C000008D2F0E94D80E24
:1020100083CF8D2F112329F00E948F1A0E947A1BE3
:102020007BCF0E94F71AFACF8C2F837009F041C042
:10203000111172CF4D2F429546954770440F440FB2
:102040000D2F0F7010E030E020E0042E04C0000FD0
:10205000111F221F331F0A94D2F760E070E0CB01FA
:10206000D4FF0FC06FE070E080E090E004C0660F26
:10207000771F881F991F4A95D2F7609570958095B4
:102080009095C695C695C370602B712B822B932BB0
:10209000C23049F058F4C13019F00E940F153CCFFE
:1020A0000E94FD1439CF0E94211536CF0E94FB14E7
:1020B00033CF8695112311F08C2F8170882309F47A
:1020C0002BCF4D2F429546954770440F440F0D2F4F
:1020D0000F7010E030E020E0042E04C0000F111F4C
:1020E000221F331F0A94D2F760E070E0CB01D4FFC7
:1020F0000FC06FE070E080E090E004C0660F771FD3
:10210000881F991F4A95D2F7609570958095909594
:10211000C695C695C370602B712B822B932BC23052
:1021200049F058F4C13019F00E94F415F5CE0E9420
:10213000E215F2CE0E940616EFCE0E943715ECCEC5
:10214000CF70112329F08C2F0E947D158D2F2ECF5B
:102150008D2F0E94210F8C2F0E949E15DDCED23F25
:1021600089F160F4D03FC9F0D13F29F1112309F47E
:1021700042C00111B9CE8C2F8F7121C0D33F39F1EC
:10218000D43FA1F7112369F1CF718C2F0E947D15E7
:1021900063E08C2F0E948417BFCE112341F00530DD
:1021A00008F0BACE8C2F8F710E94C115B5CE0630C3
:1021B00008F0B2CEF7CF8C2F8F71112369F20E94F5
:1021C0007D15AACE8C2F8F711123C9F3C5CF112392
:1021D00029F08C2F8F710E9468159ECE0E944315A6
:1021E0009BCE81E00E949917023008F495CE82E0E0
:1021F0000E94991791CE002359F0D93309F005CFE9
:102200008FEF97EEE3E081509040E040E1F7FBCEA6
:102210008C2F8F71A1CF4C2F4F706D2FC6010E9454
:1022200041090E94731478CE4C2F4F706D2FC60158
:102230000E94440971CEDF91CF911F910F91FF90C1
:10224000EF90DF90CF90BF9008950F931F93CF939F
:10225000DF93EC01688179818A810E94B9168C0133
:102260000E9418160E94FA14B801CE01DF91CF9196
:102270001F910F910C94280FCF93DF93EC018B816A
:102280009C81892B29F08881998189238F3F59F47A
:10229000DF91CF910895CE010E942511CE01DF91EB
:1022A000CF910C941808CE010E9405098111F3CF3B
:1022B0000E94FB16882361F38A81882349F382E018
:1022C000DF91CF910C9499170E9422170E94321728
:1022D0000E944E170E94A11C0C947A1B0E94EB16C0
:1022E0000C9464110E9412170C946E11E92FE29560
:1022F000EF70E250EE3070F4F0E0E054FC4D0C94DE
:102300004523803F19F020F4883E20F481E00895B1
:10231000843FE1F380E00895883EC0F3813FD1F728
:10232000F5CF93FB882780F908950E94AF160C948F
:102330007611CF93DF9300D000D00F92CDB7DEB7E8
:102340000F900F900F900F900F90DF91CF91089505
:10235000CF93DF9300D000D000D0CDB7DEB7269664
:102360000FB6F894DEBF0FBECDBFDF91CF910895B9
:102370001F93CF93DF93C091820116E08091830178
:102380008C1304C0DF91CF911F910895D0E01C9F62
:10239000F0011D9FF00D1124EC57FE4F408151813B
:1023A00062817381848195810E94A8112196C770F2
:1023B000E5CF4091B4015091B5016091B6017091A3
:1023C000B7018091B8019091B9010C94A8111F93A5
:1023D000CF93DF938091B901807FA9F48091B601FA
:1023E000882389F080918201C09183016091B401BA
:1023F0007091B501A091B701B091B801D62FD72344
:1024000016E0C81304C0DF91CF911F91089590E0AA
:10241000109711F0DF3F19F401968770F2CF189FE3
:102420009001199F300D1124F901EC57FE4F4181A5
:102430004713F2CF40814613EFCF42814111ECCFD9
:10244000438154814A1B5B0B4436510528F7809128
:10245000B9018F7080618093B901F901E757FE4F90
:1024600080818F708061808384EB91E00E943C11B9
:10247000DF91CF911F910C94B811AF92BF92CF9280
:10248000DF92EF92FF920F931F93CF93DF93CDB71D
:10249000DEB761970FB6F894DEBF0FBECDBF8C01DB
:1024A00085E0F801DE011D9601900D928A95E1F715
:1024B000F80140815181E28084EBC82E81E0D82E62
:1024C0006091B7017091B8016115710509F44FC1B0
:1024D0009091B4012091B501892F82238F3F09F497
:1024E00046C1A380B480F090B601F501E61BF70B5E
:1024F000FF2009F40AC18091B901382F307FE436FA
:10250000F10508F0C0C0311179C0FE2C251323C09D
:10251000941321C0E1101FC08F7080618093B901B6
:102520000E94D911C6010E943C118091B901F801A5
:1025300085838F2D61960FB6F894DEBF0FBECDBF99
:10254000DF91CF911F910F91FF90EF90DF90CF908F
:10255000BF90AF900895AB2829F0842F85238F3F3B
:1025600009F021C180E0F82FF170DF2E80FF3CC020
:10257000809182012091830136E0821315C04D873E
:102580005E878D859E850E94AF16292F22952F701C
:102590002230F0F0243018F59F70F1F0F8019581A9
:1025A000907FD1F4D12C1EC090E0389FF001399F6C
:1025B000F00D1124EC57FE4F6181651306C0608158
:1025C000641303C062816E110FC001968770D5CF6E
:1025D0009F7011F0882331F3805E883018F3C801B2
:1025E0000E943C11FD2CA5CFEE2009F4A2CF8091D2
:1025F000B90181608093B901F12C9BCF251314C0E0
:10260000941312C0E11010C0F8018583C8010E9424
:102610003C1186E0F801A4EBB1E001900D928A959F
:10262000E1F70E94D91185CF4D875E878D859E8504
:102630000E949511882319F1EE2009F18091B901CA
:10264000803270F02091B4013091B50138872F832A
:102650001986BB86AA868C87CE0107960E943C11FC
:1026600086E0F801A4EBB1E001900D928A95E1F7C4
:102670000E94E7110E94D911FF24F3945ACFC80198
:102680000E943C11F9CF311113C07A2DB98AA88A62
:102690006E2D89890E94991184EB91E00E943C1172
:1026A00086E0F60111928A95E9F70E94D911A4CF2C
:1026B00025130FC094130DC0E1100BC0F8018583E2
:1026C000C8010E943C1186E0F60111928A95E9F753
:1026D00030CF4D875E878D859E850E94951188231A
:1026E00071F2EE2061F28091B901803208F4B8CF26
:1026F0002091B4013091B5013A8329831B82BD82B8
:10270000AC828E83CE010196A9CFE436F10510F597
:10271000FE2CEE2009F4B3CF25130BC0941309C08F
:1027200086E0F801A4EBB1E001900D928A95E1F703
:1027300000CF4D875E878D859E850E949511811102
:102740008FCF8091B90181608093B901C8010E9447
:102750003C11EFCE7A2DB98AA88A6E2D89890E9404
:10276000991186E0F60111928A95E9F75ACFEE2089
:1027700009F485CF4D875E878D859E850E949511D2
:10278000F82E882309F47BCF86E0F801A4EBB1E0B2
:1027900001900D928A95E1F784EB91E00E94A00EE2
:1027A0000E94E7113ECF81E08E25DDCE84E690E0E9
:1027B00008951F93CF93DF93CDB7DEB72C970FB655
:1027C000F894DEBF0FBECDBF4F83588769877A87E5
:1027D0008B879C87CE0107960E943D12882369F063
:1027E0008A859B85892B39F04F815885842F8523D5
:1027F0008F3F09F071C016E05FC086E0FE0137969A
:10280000DE01119601900D928A95E1F78A859B85EC
:10281000892B89F38F81988589238F3F61F32091DC
:10282000830130E0C90101968770992740918201A8
:102830004817190671F40E947211109283011092C8
:10284000820186E0E4EBF1E0DF011D928A95E9F771
:10285000D2CF96E0929FD001939FB00D1124AC5738
:10286000BE4FFE01319601900D929A95E1F780934B
:1028700083010E94B811BFCF819FC00111248C57E2
:102880009E4F0E943D128823E9F0E09182011E9F35
:10289000F0011124EC57FE4F408151816281738118
:1028A000848195810E94A8118091820190E0019617
:1028B0008770992780938201809182019091830192
:1028C0008913DACF2C960FB6F894DEBF0FBECDBFBA
:1028D000DF91CF911F91089569857A858B859C85BD
:1028E0000E94A81188CFEF92FF920F931F93CF936E
:1028F000DF938C01892B81F0F12CEE24E394E80125
:102900002196F8018491843770F4843008F05FC018
:102910008130B1F08230A1F1DF91CF911F910F9101
:10292000FF90EF900895853709F44CC008F43DC03E
:102930009CE7980F903780F78F770E94D80E49C098
:102940000E5F1F4FFE01849190E2980F983060F463
:102950008770FE2D01C0FF0F8A95EAF78F2F0E9426
:1029600025170E944E1702C00E94A50E8F2D815080
:1029700030F2EFE9FFE03197F1F700C00000F7CF48
:102980000E5F1F4FFE01849190E2980F983050F433
:102990008770FE2D01C0FF0F8A95EAF78F2F0E94E6
:1029A0002B17DFCF0E94D80EE1CF0E5F1F4FFE0125
:1029B000C491C150D8F28FE99FE00197F1F700C0B0
:1029C0000000F7CF0E5F1F4FFE01F490CFCF0E94A3
:1029D000A50E8E01CBCF08950C94EB140E94EC143D
:1029E0006093EB017093EC018093ED019093EE0105
:1029F0000C94641108950C94EE140F931F9300919E
:102A0000EB011091EC012091ED013091EE01602B72
:102A1000712B822B932B1F910F910C94EE140F931B
:102A20001F930091EB011091EC012091ED01309189
:102A3000EE0160237123822393231F910F910C9445
:102A4000EE140F931F930091EB011091EC01209174
:102A5000ED013091EE0160277127822793271F91A6
:102A60000F910C94EE140C94EB140C9433150E94FB
:102A700035156093E7017093E8018093E901909325
:102A8000EA010C94641160E070E0CB010C943715FE
:102A9000611571058105910529F481E0442361F0F8
:102AA00080E00895DC01CB0104C0B695A795979509
:102AB00087954A95D2F781700895482F6091E70174
:102AC0007091E8018091E9019091EA010C94481518
:102AD0000F931F9341E050E060E070E08A019B019A
:102AE00004C0000F111F221F331F8A95D2F7C9019E
:102AF000B8011F910F910C9437150F931F9341E06C
:102B000050E060E070E004C0440F551F661F771F5F
:102B10008A95D2F78091E7019091E801A091E901AF
:102B2000B091EA018A019B01082B192B2A2B3B2B20
:102B3000C901B8011F910F910C9437150F931F9382
:102B400041E050E060E070E004C0440F551F661F94
:102B5000771F8A95D2F7CB01BA0160957095809561
:102B600090950091E7011091E8012091E9013091E1
:102B7000EA0160237123822393231F910F910C9408
:102B800037150F931F9341E050E060E070E004C000
:102B9000440F551F661F771F8A95D2F78091E70172
:102BA0009091E801A091E901B091EA018A019B01AD
:102BB000082719272A273B27C901B8011F910F9120
:102BC0000C9437150F931F930091E7011091E801C2
:102BD0002091E9013091EA01602B712B822B932B1C
:102BE0001F910F910C9437150F931F930091E701DC
:102BF0001091E8012091E9013091EA0160237123ED
:102C0000822393231F910F910C9437150F931F93D9
:102C10000091E7011091E8012091E9013091EA016A
:102C200060277127822793271F910F910C943715E6
:102C3000089527E0929F800D1124982F977041E00E
:102C400001C0440F9A95EAF786958695869595E09A
:102C5000899FF0011124E654FE4F90E080E070E07F
:102C60005191DF0111979B01082E02C036952795DF
:102C70000A94E2F7217021952527242325272C93F8
:102C800001968530910561F7089527E0929F800DA8
:102C90001124982F977086958695869525E0829FBA
:102CA000F0011124E654FE4F50E040E080E0219115
:102CB00030E0092E02C0369527950A94E2F721707C
:102CC0003327042E01C0220F0A94EAF7822B4F5FAC
:102CD0005F4F4530510559F70895BF92CF92DF926B
:102CE000EF92FF920F931F93CF93DF938C01C090CD
:102CF000E701D090E801E090E901F090EA018091CD
:102D0000EB019091EC01A091ED01B091EE01C82A88
:102D1000D92AEA2AFB2ACFE1D0E0BC2ED701C6018E
:102D20000C2E04C0B695A795979587950A94D2F76F
:102D300080FD0EC0219788F7B12C8B2DDF91CF91AC
:102D40001F910F91FF90EF90DF90CF90BF9008956B
:102D5000B8018C2F0E946109019761F3EECFCF93E8
:102D6000DF93EC010E946D16BE01DF91CF910C94B0
:102D700061091F93CF93DF93EB0190918101992318
:102D800031F0CB01DF91CF911F910C94AF168823C6
:102D900079F0CB010E946D16182F682FCE010E948A
:102DA0001916BE01812FDF91CF911F910C946109FB
:102DB000CB010E944516182FF4CF682F80911C017B
:102DC00090911D010C94EE18682F80911C01909138
:102DD0001D010C94F91880911C0190911D010C9417
:102DE00004198091EF0185958595859508958091C9
:102DF000EF01877008959091EF01977081E009F4D9
:102E000080E0089580911302089590911302892B18
:102E100080931302089580959091130298239093C4
:102E20001302089510921302089590911202892BB3
:102E300080931202089580959091120298239093A6
:102E40001202089510921202089590911102892B96
:102E50008093110208958095909111029823909388
:102E6000110208951092110208958091F0010895C1
:102E700008950C9438179091F001981721F08093E1
:102E8000F0010C94391708958091F001882329F0FE
:102E90001092F00180E00C9439170895E0911C0124
:102EA000F0911D01809113028083E0911C01F0914B
:102EB0001D01808190911202892B8083E0911C0179
:102EC000F0911D01808190911102892B8083909156
:102ED000F001992381F0E0911C01F0911D018081A6
:102EE000892B808380911C0190911D010E945A18AA
:102EF00081110E94441780911C0190911D010C9436
:102F00006D0D08950C94811798E0899F900111240C
:102F1000622B6093EF010E947D158091EF018595F2
:102F2000859585950C9482171092EF0180E00C94A2
:102F300082179091EF01809589238093EF01282FCC
:102F4000277071F4282F082E000C330B92171306EC
:102F500039F08595859585950E949E150C9494175A
:102F6000089590E080E00E94742321E08C3E9E4F03
:102F700009F020E0822F089582E090E00C946C2309
:102F800083E090E00C946C23682F83E090E00C9435
:102F90007A23CF9384E090E00E946C23C82F81E2D3
:102FA00090E00E946C23982F8C2FCF910895CF939F
:102FB000C92F682F84E090E00E947A236C2F81E271
:102FC00090E0CF910C947A23AB01BC018FE090E0AC
:102FD0000C948C23AB01BC0183E190E00C948C2316
:102FE00060E070E0CB010C94EA1760E070E0CB0188
:102FF0000E94E4170C94F0176CEE7EEF90E080E0F6
:103000000E94982360E082E090E00E947A2360E0D2
:1030100083E090E00E947A231092EB011092EC0181
:103020001092ED011092EE0160E084E090E00E94C9
:103030007A2360E081E290E00E947A2360E085E0FC
:1030400090E00E947A2360E086E090E00E947A237C
:103050006FEF87E090E00E947A2340E050E0BA01F1
:1030600088E090E00E948C2360E08DE090E00E9478
:103070007A2340E050E0BA0188E190E00E948C237E
:1030800060E087E190E00E947A2340E050E0BA01DE
:103090008CE190E00E948C2360E080E290E00E944E
:1030A0007A230C94F5170C94FC17682F8EE090E0AF
:1030B0000C947A23FC01329680913001882321F010
:1030C000809149029EE187FF96E080E0915008F4EC
:1030D000089521912223D1F38F5FF8CF662301F168
:1030E000209130012223F1F02091490227FF1AC0DC
:1030F000462F4695469546954E3190F4677021E0EF
:1031000030E002C0220F331F6A95E2F7840F911D51
:10311000FC01828190E02823392381E0232B69F48C
:1031200080E00895FC01329608962191261721F03F
:10313000E817F907D1F7F4CF81E008959C01FC016D
:1031400032969FEF80E04191461751F09F3F19F46E
:10315000411101C0982F8F5F8630A9F79F3F09F476
:103160000895290F311D97FD3A95F901628308955D
:10317000FC01329608962191261303C0DF011197B6
:103180001C92E817F907B9F70895E62FE695E6953A
:10319000E695EE3168F4E80FF92FF11D677021E034
:1031A00030E001C0220F6A95EAF78281822B828388
:1031B0000895E62FE695E695E695EE3170F4E80F72
:1031C000F92FF11D677021E030E001C0220F6A95F0
:1031D000EAF72095828128232283089520913001E7
:1031E000222329F02091490227FD0C94C5180C9444
:1031F0009E1820913001222329F02091490227FDB9
:103200000C94D9180C94B818FC01329680913001B6
:10321000882351F08091490287FF06C08EE1DF01CB
:103220001D928A95E9F7089586E0F9CF08950895EB
:103230000C9417190E94181980914F02843049F19B
:103240001092150288E190E020E40FB6F894A8955A
:10325000809360000FBE2093600080E00E94ED0824
:103260000E94181983B7817F846083BF83B7816010
:1032700083BF7894889583B78E7F83BF0FB6F89409
:10328000A895809160008861809360001092600032
:103290000FBE08950895CF930E9416190E9431061B
:1032A0000E944A19C0E08C2F0E948C06811105C033
:1032B000CF5FCA30C1F7CF91089581E0FCCF089568
:1032C0000C945F190E9472110E94610D0E94ED081A
:1032D0000C9460191F921FB61F9211248F939F9315
:1032E000AF93BF9380911502811113C08091450265
:1032F00090914602A0914702B09148024196A11DCB
:10330000B11D8093450290934602A0934702B0936B
:103310004802BF91AF919F918F911F901FBE1F9048
:10332000189582E084BD93E095BD9AEF97BD809398
:103330006E0008952FB7F89480914502909146024F
:10334000A0914702B09148022FBF08959C014FB74A
:10335000F8948091450290914602A0914702B09165
:1033600048024FBF821B930B089578941F921FB69B
:103370001F9211248F939F93AF93BF938091450227
:1033800090914602A0914702B09148020196A11D7A
:10339000B11D8093450290934602A0934702B093DB
:1033A0004802BF91AF919F918F911F901FBE1F90B8
:1033B000189587E797E7909301088093000888E1C4
:1033C0009AE00FB6F894A895809360000FBE909392
:1033D0006000FFCF0E94B117811102C00E945318F4
:1033E0000E94BC17809314020E94C91790934A024E
:1033F000809349020E94C017682F70E090E080E03F
:103400000E94FB146091E7017091E8018091E9014D
:103410009091EA010C94351580911C0280FF12C036
:103420006091230185E0689FB0011124759567952F
:103430007595679560387105A8F561157105A1F15D
:10344000862F089581FF09C06091230185E0689F60
:10345000B001112475956795EDCF6091230182FD30
:103460000AC080911B028823D1F0909122016091C3
:103470002301891728F085E0689FB0011124DACF75
:10348000869FB001112485E0869F9001879F300DB3
:103490001124692F70E0C9010E943123CBCF65E070
:1034A00070E0CECF8FE7089581E0089580911C02EF
:1034B00080FF0CC060911F0170E075956795759550
:1034C00067956115710549F1862F089581FF06C042
:1034D00060911F0170E075956795F3CF60911F01B2
:1034E00082FD0BC090911A029923A1F060911E01F8
:1034F00080911F01961738F0682F70E060387105D1
:1035000000F38FE70895899FC001112470E00E94A5
:103510003123F4CF61E070E0D7CF81E00895803FA0
:1035200031F40E940C1A8195809320020895813F06
:1035300019F40E940C1AF8CF823F31F40E940C1A41
:10354000819580931F020895833F19F40E940C1AFD
:10355000F8CF893F29F40E94561A809321020895DA
:103560008A3F21F40E94561A8195F7CF8B3F31F4A0
:103570000E94561A81958093220208958C3F19F477
:103580000E94561AF8CF843F31F480911E02816068
:1035900080931E020895853F21F480911E0282606F
:1035A000F7CF863F21F480911E028460F1CF873FE0
:1035B00021F480911E028860EBCF883F21F4809136
:1035C0001E028061E5CF8D3F31F480911C02816045
:1035D00080931C0208958E3F21F480911C0282602A
:1035E000F7CF8F3FB9F780911C028460F1CF9091A3
:1035F0001F02803F59F48091200287FF0DC0109276
:10360000200291110BC010921B0208C0813F81F46F
:103610008091200218169CF3992381F08091210259
:1036200090912202892B09F064C010921A02089529
:10363000823F49F497FFF0CF10921F028091200241
:103640008111ECCFE0CF833F19F41916ACF3E4CF2E
:1036500020912102893F29F41216F4F610922102DA
:10366000DBCF8A3F19F427FFD7CFF8CF2091220272
:103670008B3F29F427FFD0CF10922202CDCF8C3F71
:1036800019F41216CCF3C8CF843F31F480911E0296
:103690008E7F80931E02C0CF853F21F480911E0251
:1036A0008D7FF7CF863F21F480911E028B7FF1CF73
:1036B000873F21F480911E02877FEBCF883F21F462
:1036C00080911E028F7EE5CF8D3F31F480911C02E8
:1036D0008E7F80931C02A0CF8E3F21F480911C022C
:1036E0008D7FF7CF8F3F09F097CF80911C028B7FA2
:1036F000F0CF08950E949A199C0190911F02809129
:103700002002982B21F030931902209318029091F7
:10371000210280912202982B21F0309317022093EE
:1037200016028DE192E00C94870DEF92FF920F93B9
:103730001F93CF93DF9300D000D000D0CDB7DEB77A
:1037400086E0EDE1F2E0DE01119601900D928A959E
:10375000E1F7E0901F02F090200200912102109109
:10376000220210921F021092200210922102109247
:1037700022028E2D8F2991F08091180290911902CA
:103780000E94A619AC0190911B02992309F43FC035
:10379000809124018417150608F447C0802F812BDF
:1037A00091F080911602909117020E94A619AC0127
:1037B00090911A02992309F477C08091200184170F
:1037C000150608F47FC080911F0290912002892B7A
:1037D00090912102892B90912202892B11F00E9455
:1037E0007A1B86E0FE013196ADE1B2E001900D92C8
:1037F0008A95E1F726960FB6F894DEBF0FBECDBFCF
:10380000DF91CF911F910F91FF90EF90089520913C
:1038100025018AE0289F900111242417350708F01C
:10382000BDCF9F5F90931B0202C09F3FD1F7EE2058
:1038300059F00E940C1A9FEF1E140CF491E0899F1E
:10384000802D112480931F02FF2059F00E940C1A32
:103850009FEF1F140CF491E0899F802D1124809319
:10386000200230911F02332309F498CF20912002C7
:10387000222309F493CF45EB3403C001112499238B
:1038800059F090931F0245EB240390011124332338
:1038900039F03093200282CF81E080931F02F3CF72
:1038A00081E0809320027ACF209121018AE0289F35
:1038B000900111242417350708F085CF9F5F90935E
:1038C0001A0202C09F3FD1F7002359F00E94561AF6
:1038D0009FEF10160CF491E0899F802D11248093A6
:1038E0002102112359F00E94561A9FEF11160CF471
:1038F00091E0899F802D1124809322023091210232
:10390000332309F460CF20912202222309F45BCFF4
:1039100045EB3403C0011124992359F090932102FF
:1039200045EB240390011124332339F03093220214
:103930004ACF81E080932102F3CF81E0809322027D
:1039400042CF86E0EDE1F2E0DF011D928A95E9F7D2
:1039500010921B0210921A0210921C02089580917C
:103960004302089508959C0182E08093E9009FEF4F
:103970008091E800915085FD06C085ED8A95F1F7AC
:1039800000009111F5CF8091E80085FF0CC050E058
:1039900040E066E070E0C9010E94A01E8091E8004E
:1039A0008E778093E8000895CF93DF93EC018091A8
:1039B00030018823B1F18091490287FF32C060E273
:1039C00082E08093E9008FEF9091E800815095FDAF
:1039D00006C095ED9A95F1F700008111F5CF809121
:1039E000E80085FF1BC08091300170E050E040E0AE
:1039F000811104C050E040E068E070E0CE010E9418
:103A0000A01E8091E8008E778093E80080E2FE019E
:103A1000A3E2B2E001900D928A95E1F7DF91CF9198
:103A2000089568E081E0CDCF089580914E02811124
:103A300009C00E9430200E948D208091E2008460A5
:103A40008093E200089510924E020895089508951B
:103A50000C94621942E061EC81E00E94AC1F42E2EA
:103A600061EC82E00C94AC1F80915102833009F428
:103A70005FC030F48130C1F1823009F49BC00895F9
:103A80008A3009F487C08B3009F46DC0893009F0A1
:103A90004EC080915002813209F049C08091540299
:103AA00090915502029708F042C08091E800877F0C
:103AB0008093E8008091E80082FF35C09091F30088
:103AC0008091F200029729F48091F1008B7F813080
:103AD00021F48091F100809343028091E8008B777C
:103AE0008093E8000C94E01F80915002813AF9F431
:103AF0008091E800877F8093E80080915402909144
:103B00005502892B61F460E283E292E070E00E944A
:103B1000EF1E8091E8008B778093E800089560E0C5
:103B200090E080E0F3CF80914F028111C3CF0895E0
:103B300080915002813AD9F78091540290915502B8
:103B4000892BA9F78091E800877F8093E800809116
:103B5000E80080FFFCCF809130018093F1008091DC
:103B6000E8008E77BDCF80915002813201F78091BD
:103B7000540290915502892BD1F68091E800877FFD
:103B80008093E8000E94E01F8091520280933001F0
:103B90000C94721180915002813249F68091E800B4
:103BA000877F8093E8000E94E01F809153028093FA
:103BB0004402089580915002813A09F0B8CF809173
:103BC000E800877F8093E8008091E80080FFFCCFC9
:103BD00080914402C2CF84B7877F84BF0FB6F89428
:103BE000A8958091600088618093600010926000C9
:103BF0000FBE80E890E00FB6F89480936100909338
:103C000061000FBE0E94CD0D0E9430200E948D20C9
:103C10008091E20084608093E20078940E941623F1
:103C20000E94D70D86E291E00E945C0D80914F02C8
:103C3000853019F00E94DF0DF9CF0E941A1980918A
:103C40004D02882399F30E944B19882379F30E942F
:103C50008A1EECCF0C942C1E292F332723303105DC
:103C600019F168F42130310509F44AC022303105D8
:103C700009F44BC090E080E030E020E028C0213221
:103C8000310579F122323105A9F780E490E023EB88
:103C900035E061157105D9F08AE890E029E235E058
:103CA00061307105A1F0E6CF99278130910599F037
:103CB000009741F08230910589F00397D9F6E4EA44
:103CC000F4E002C0E8EDF4E0849190E09F01FA0195
:103CD000318320830895E2ECF4E0F6CFEAEAF4E0E1
:103CE000F3CF89E090E02EEE34E06115710579F3B1
:103CF00089E090E027E035E06130710541F3BACF0B
:103D000082E190E027E135E0E2CF8BE390E02CED1B
:103D100034E0DDCF80E189BD82E189BD09B400FED8
:103D2000FDCF8091D8008F7D8093D8008091E000F6
:103D300082608093E0008091E00081FDFCCF0895D7
:103D4000AF92BF92CF92DF92FF920F931F93CF93C8
:103D5000DF936C01EB018A010E94FF1FF82E811195
:103D600023C00115110539F0F80180819181C81B2C
:103D7000D90BC80ED91EB12CA12C2097A9F0809187
:103D8000E80085FD22C08091E8008E778093E800EE
:103D900001151105A1F0F80180819181A80EB91ECD
:103DA000B182A08285E0F82E8F2DDF91CF911F91F7
:103DB0000F91FF90DF90CF90BF90AF9008950E9439
:103DC000FF1F8823D1F2F82EEFCFF60181916F010A
:103DD0008093F1002197FFEFAF1ABF0ACECFFC010D
:103DE000809156029091570286179707A0F06115AF
:103DF000710529F49091E8009E779093E80090E097
:103E00006115710551F4911108C08091E80082FF9D
:103E100034C080E00895BC01F2CF80914F02882326
:103E2000C1F18530C1F18091E80083FD30C08091FF
:103E3000E80082FDEACF8091E80080FFE1CF809129
:103E4000F3002091F200382F6115710519F0283028
:103E5000310558F091E02830310509F090E02091CB
:103E6000E8002E772093E800CBCF81918093F1007A
:103E7000615071092F5F3F4FE7CF80914F02882338
:103E800041F0853041F08091E80083FFBECF81E0B2
:103E9000089582E0089583E00895FC018091560220
:103EA0009091570286179707A0F06115710529F4C4
:103EB0008091E8008E778093E80090E061157105AD
:103EC00051F4911108C08091E80082FF35C080E074
:103ED0000895BC01F2CF80914F028823C9F185304B
:103EE000C9F18091E80083FD31C08091E80082FD36
:103EF000EACF8091E80080FFE1CF8091F30020912C
:103F0000F200382F6115710519F02830310558F08D
:103F100091E02830310509F090E08091E8008E773B
:103F20008093E800CBCF84918093F100319661506B
:103F300071092F5F3F4FE6CF80914F02882341F0F8
:103F4000853041F08091E80083FFBDCF81E0089586
:103F500082E0089583E00895982F973028F08F70BD
:103F60008093E90081E008959093E900242F762F53
:103F700050E0981731F07091EC002091ED005091D5
:103F8000F00021FD02C09F5FE8CF3091EB003E7F43
:103F90003093EB003091ED003D7F3093ED00309198
:103FA000EB0031603093EB007093EC002093ED0058
:103FB0005093F0002091EE0027FDE5CF80E00895BA
:103FC0008091500287FF13C08091E80082FF06C0F5
:103FD0008091E8008B778093E80004C080914F02C5
:103FE0008111F2CF089580914F028823D9F38091F7
:103FF000E80080FFF8CF8091E8008E77ECCF209129
:10400000E4003091E50095E6A9012091EC00822FB3
:10401000817020FF06C08091E80080FF06C080E02C
:1040200008952091E80022FD1AC080914F02882354
:1040300089F0853089F08091EB0085FD0FC02091DB
:10404000E4003091E50042175307F9F29150E1F690
:1040500084E0089582E0089583E0089581E0089562
:104060000E949E200E94A620E0EEF0E08081816008
:104070008083E8EDF0E080818F77808319BCA7ED25
:10408000B0E08C918E7F8C9380818F7E80831092A4
:104090004E0208950F931F93CF93DF930E949E20AB
:1040A0000E94A620C8EDD0E088818F778883888120
:1040B0008068888388818F7D888319BC10924F0225
:1040C00010924B0210924D0210924C0200EE10E042
:1040D000F80180818B7F808388818160888342E0C2
:1040E00060E080E00E94AC1FE1EEF0E080818E7F16
:1040F0008083E2EEF0E0808181608083808188604F
:104100008083F80180818E7F8083888180618883AD
:10411000DF91CF911F910F910895E8EDF0E080813C
:104120008F7E8083E7EDF0E080818160808384E092
:1041300082BF81E080934E020C944A20E8EDF0E0CB
:1041400080818E7F80831092E20008951092DA00C1
:104150001092E10008951F920F920FB60F92112452
:104160002F933F934F935F936F937F938F939F937F
:10417000AF93BF93EF93FF938091E10082FF0BC059
:104180008091E20082FF07C08091E1008B7F8093E5
:10419000E1000E9415238091DA0080FF19C0809110
:1041A000D80080FF15C08091DA008E7F8093DA00FE
:1041B0008091D90080FF96C080E189BD82E189BDF0
:1041C00009B400FEFDCF81E080934F020E94151DCF
:1041D0008091E10080FF19C08091E20080FF15C04E
:1041E0008091E2008E7F8093E2008091E200806106
:1041F0008093E2008091D80080628093D80019BC3F
:1042000085E080934F020E94271D8091E10084FF8A
:104210002BC08091E20084FF27C080E189BD82E14C
:1042200089BD89B5982F917080FFFBCF8091D80010
:104230008F7D8093D8008091E1008F7E8093E10094
:104240008091E2008F7E8093E2008091E2008160A5
:104250008093E20080914B02882309F449C084E0F6
:1042600080934F020E94281D8091E10083FF29C0A6
:104270008091E20083FF25C08091E100877F8093D9
:10428000E10082E080934F0210924B028091E100A6
:104290008E7F8093E1008091E2008E7F8093E20028
:1042A0008091E20080618093E20042E060E080E083
:1042B0000E94AC1F8091F00088608093F0000E9403
:1042C000261DFF91EF91BF91AF919F918F917F91AB
:1042D0006F915F914F913F912F910F900FBE0F9073
:1042E0001F90189519BC10924F020E94231D70CF89
:1042F0008091E30087FD93E090934F02B3CF1F922C
:104300000F920FB60F9211242F933F934F935F9309
:104310006F937F938F939F93AF93BF93CF93DF93CD
:10432000EF93FF93D091E900DF708091EC00C82FEC
:10433000C17080FDC0E81092E9008091F000877F95
:104340008093F00078940E94C3211092E90080913C
:10435000F00088608093F000CD2BCF70C093E9000F
:10436000FF91EF91DF91CF91BF91AF919F918F918D
:104370007F916F915F914F913F912F910F900FBE61
:104380000F901F9018951F93CF93DF93CDB7DEB793
:10439000AA970FB6F894DEBF0FBECDBF80E592E0BE
:1043A0002091F100FC012193CF01F2E088359F07B5
:1043B000B9F70E94341D8091E80083FF1EC18091EF
:1043C0005002909151029A3008F017C1E92FF0E0A5
:1043D000E253FC4D0C944523803899F0823809F063
:1043E0000CC1809154028F70873008F006C1809311
:1043F000E9008091EB0085FB882780F91092E900A5
:1044000006C080914C0290914D0291118260909172
:10441000E800977F9093E8008093F1001092F100FC
:104420008091E8008E77E5C0882309F4D3C08230FC
:1044300009F0E3C0809152028111D6C080915402EC
:104440008F702FEF280F263008F0D7C08093E90037
:104450002091EB0020FFC8C0933031F48091EB0035
:1044600080628093EB00C0C09091EB0090619093CC
:10447000EB0021E030E001C0220F8A95EAF720939B
:10448000EA001092EA008091EB008860EACF811187
:10449000B4C0109152021F778091E3008078812B85
:1044A0008093E3008091E800877F8093E8000E947A
:1044B000E01F8091E80080FFFCCF8091E3008068DE
:1044C0008093E30082E0111183E080934F0295C056
:1044D0008058823008F091C080915202909153022E
:1044E0008C3D23E09207A1F583E08A838AE28983E9
:1044F0004FB7F894DE01139620E03EE051E2E32F3F
:10450000F0E050935700E49120FF03C0E295EF7074
:104510003F5FEF708E2F90E0EA30C0F0C7968D932A
:104520009D932F5F243159F74FBF8091E800877F1B
:104530008093E8006AE270E0CE0101960E94EF1ECF
:104540008091E8008B778093E80057C0C096E7CF52
:104550006091540270915502AE014F5F5F4F0E940F
:104560002A1EBC01892B09F448C09091E800977F6E
:104570009093E80089819A810E944D1FE1CF803895
:10458000E1F58091E800877F8093E80080914B02FD
:104590008093F10045CF811130C09091520292304A
:1045A00060F58091E800877F8093E80090934B024C
:1045B0000E94E01F80914B02882311F084E005C027
:1045C0008091E30087FDFACF81E080934F020E9443
:1045D0002A1D13C080915202813079F481E093301A
:1045E00009F080E080934D021092E9008091E8008C
:1045F000877F8093E8000E94E01F8091E80083FF9E
:104600000AC08091E800877F8093E8008091EB00EA
:1046100080628093EB00AA960FB6F894DEBF0FBEBF
:10462000CDBFDF91CF911F9108950895CF938091D1
:104630004F028823A1F0C091E900CF709091EC0067
:10464000892F817090FD80E8C82B1092E90080913D
:10465000E80083FD0E94C321CF70C093E900CF9191
:10466000089597FB072E16F4009407D077FD09D024
:104670000E944B2307FC05D03EF4909581959F4FF7
:104680000895709561957F4F0895EE0FFF1F059077
:10469000F491E02D0994AA1BBB1B51E107C0AA1F8E
:1046A000BB1FA617B70710F0A61BB70B881F991FD3
:1046B0005A95A9F780959095BC01CD010895FB010D
:1046C000DC0104C08D910190801921F441505040CB
:1046D000C8F7881B990B0895F999FECF92BD81BD4B
:1046E000F89A992780B50895A8E1B0E042E050E03B
:1046F0000C94A023262FF999FECF92BD81BDF89A84
:10470000019700B4021639F01FBA20BD0FB6F89415
:10471000FA9AF99A0FBE08950396272F0E947B23D9
:104720000E947A23252F0E947B23242F0C947B2325
:104730000196272F0E947B230C947A23DC01CB0166
:10474000FC01F999FECF06C0F2BDE1BDF89A3196A1
:1047500000B40D9241505040B8F70895F894FFCF3F
:104760005F0F5F0FB70FB70F8C0F09108C0F8C0FF7
:104770001410A010AF10AF100B118C0F8C0F141170
:10478000811181118A118A118C118A118A118A1161
:104790008111811191118A118A119111EC21142238
:1047A000FD221422FD2247226822FD22BF22CB22B5
:1047B00005015F01000000015D015F01056001016D
:1047C0005D015E01000000056501FFFFF1012808A1
:1047D000641E140A321EAF1CD41CB31CB21C141D60
:1047E00001F4F5F6F7313332946697C634000000D1
:0247F0000000C7
:00000001FF
